:020000040800F2
:1000000000500020C995000811960008F955000815
:100010001196000807560008155600080000000059
:100020000000000000000000000000006157000810
:100030001196000800000000F15700081532000872
:1000400011960008119600081196000811960008F4
:100050001196000811960008053300080B330008BC
:1000600011330008173300081D33000811960008EB
:1000700011960008119600081196000811960008C4
:1000800011960008119600081196000811960008B4
:1000900011960008119600081196000823330008F5
:1000A0001196000805300008119600081930000864
:1000B0001D30000831300008453000085187000825
:1000C0005D87000869870008758700081196000899
:1000D00011960008413E0008593E0008753E000890
:1000E000393300081196000811960008000000003E
:1000F0000000000000000000000000000000000000
:0C01000000000000000000005FF808F1A3
:1001100080F0004002E000BF81F0004142001FBFBC
:100120005FEA410392EA030F7FEA226C7FEA236CC5
:100130006AD04FEA1262D2EB1363C1BFD2184140BA
:1001400048404140B8BF5B42192B88BF704710F050
:10015000004F40F4000020F07F4018BF404211F0F3
:10016000004F41F4000121F07F4118BF494292EA5B
:10017000030F3FD0A2F1010241FA03FC10EB0C0087
:10018000C3F1200301FA03F100F0004302D5494214
:1001900060EB4000B0F5000F13D3B0F1807F06D3C1
:1001A00040084FEA310102F10102FE2A51D2B1F1B9
:1001B000004F40EBC25008BF20F0010040EA0300AE
:1001C0007047490040EB0000013A28BFB0F5000F2E
:1001D000EDD2B0FA80FCACF1080CB2EB0C0200FAE4
:1001E0000CF0AABF00EBC25052421843BCBFD04033
:1001F0001843704792F0000F81F4000106BF80F4AD
:1002000000000132013BB5E74FEA41037FEA226C6F
:1002100018BF7FEA236C21D092EA030F04D092F03A
:10022000000F08BF0846704790EA010F1CBF00206E
:10023000704712F07F4F04D1400028BF40F00040CB
:10024000704712F100723CBF00F50000704700F0EB
:10025000004343F0FE4040F4000070477FEA226212
:1002600016BF08467FEA23630146420206BF5FEAE3
:10027000412390EA010F40F4800070474FF00003E3
:1002800004E000BF10F0004348BF40425FEA000CAA
:1002900008BF704743F0964301464FF000001CE052
:1002A00050EA010208BF70474FF000030AE000BFA8
:1002B00050EA010208BF704711F0004302D54042E6
:1002C00061EB41015FEA010C02BF84460146002058
:1002D00043F0B64308BFA3F18053A3F50003BCFA73
:1002E0008CF2083AA3EBC25310DB01FA02FC634420
:1002F00000FA02FCC2F12002BCF1004F20FA02F227
:1003000043EB020008BF20F00100704702F1200219
:1003100001FA02FCC2F1200250EA4C0021FA02F27A
:1003200043EB020008BF20EADC7070474FF0FF0C7F
:100330001CEAD0521EBF1CEAD15392EA0C0F93EA7A
:100340000C0F6FD01A4480EA010C400218BF5FEA1C
:1003500041211ED04FF0006343EA501043EA51118F
:10036000A0FB01310CF00040B1F5000F3EBF490089
:1003700041EAD3715B0040EA010062F17F02FD2A8D
:100380001DD8B3F1004F40EBC25008BF20F0010070
:10039000704790F0000F0CF0004C08BF49024CEA87
:1003A000502040EA51207F3AC2BFD2F1FF0340EA19
:1003B000C250704740F400004FF00003013A5DDC8A
:1003C00012F1190FDCBF00F000407047C2F10002CB
:1003D000410021FA02F1C2F1200200FA02FC5FEAB8
:1003E000310040F1000053EA4C0308BF20EADC7002
:1003F000704792F0000F00F0004C02BF400010F474
:10040000000F013AF9D040EA0C0093F0000F01F020
:10041000004C02BF490011F4000F013BF9D041EA42
:100420000C018FE70CEAD15392EA0C0F18BF93EA44
:100430000C0F0AD030F0004C18BF31F0004CD8D16E
:1004400080EA010000F00040704790F0000F17BFF5
:1004500090F0004F084691F0000F91F0004F14D03B
:1004600092EA0C0F01D142020FD193EA0C0F03D193
:100470004B0218BF084608D180EA010000F0004096
:1004800040F0FE4040F40000704740F0FE4040F471
:10049000400070474FF0FF0C1CEAD0521EBF1CEA10
:1004A000D15392EA0C0F93EA0C0F69D0A2EB03022E
:1004B00080EA010C49024FEA402037D04FF08053C8
:1004C00043EA111143EA10130CF000408B4238BF8D
:1004D0005B0042F17D024FF4000C8B4224BF5B1A9B
:1004E00040EA0C00B3EB510F24BFA3EB510340EAE9
:1004F0005C00B3EB910F24BFA3EB910340EA9C0097
:10050000B3EBD10F24BFA3EBD10340EADC001B0106
:1005100018BF5FEA1C1CE0D1FD2A3FF650AF8B42AA
:1005200040EBC25008BF20F0010070470CF0004CB7
:100530004CEA50207F32C2BFD2F1FF0340EAC250E2
:10054000704740F400004FF00003013A37E792F0A3
:10055000000F00F0004C02BF400010F4000F013A01
:10056000F9D040EA0C0093F0000F01F0004C02BFFC
:10057000490011F4000F013BF9D041EA0C0195E765
:100580000CEAD15392EA0C0F08D142027FF47DAFFE
:1005900093EA0C0F7FF470AF084676E793EA0C0FEE
:1005A00004D14B023FF44CAF08466EE730F0004CEC
:1005B00018BF31F0004CCAD130F000427FF45CAF7C
:1005C00031F000437FF43CAF5FE700BF4FF0FF3CEA
:1005D00006E000BF4FF0010C02E000BF4FF0010C3D
:1005E0004DF804CD4FEA40024FEA41037FEA226C06
:1005F00018BF7FEA236C11D001B052EA530C18BF28
:1006000090EA010F58BFB2EB030088BFC81738BF8C
:100610006FEAE17018BF40F0010070477FEA226C7A
:1006200002D15FEA402C05D17FEA236CE4D15FEA76
:10063000412CE1D05DF8040B704700BF84460846AA
:100640006146FFE70FB5FFF7C9FF002848BF10F16B
:10065000000F0FBD4DF808EDFFF7F4FF0CBF0120B0
:1006600000205DF808FB00BF4DF808EDFFF7EAFF3A
:1006700034BF012000205DF808FB00BF4DF808EDF5
:10068000FFF7E0FF94BF012000205DF808FB00BFEA
:100690004DF808EDFFF7D2FF94BF012000205DF870
:1006A00008FB00BF4DF808EDFFF7C8FF34BF01207D
:1006B00000205DF808FB00BF42000ED2B2F1FE4FF1
:1006C0000BD34FF09E03B3EB126209D44FEA002321
:1006D00043F0004323FA02F070474FF000007047E8
:1006E00012F1610F01D1420202D14FF0FF30704789
:1006F0004FF00000704700BF53B94AB9002908BF46
:1007000000281CBF4FF0FF314FF0FF3000F00CB855
:10071000ADF1080C6DE904CE09F072F8DDF804E0E3
:10072000DDE9022304B07047704700BF034613F8A9
:10073000012B002AFBD1181A0138704710B5054C5F
:10074000237833B9044B13B10448AFF3008001237D
:10075000237010BD880000200000000008C10008C0
:1007600008B5034B1BB103490348AFF3008008BD34
:10077000000000008C00002008C1000810B590B0F7
:100780002022002107A80BF093FB1422002101A8CE
:100790000BF08EFB102301220224CDE90A234FF433
:1007A000601306A806940D940F9301F065FC00B148
:1007B000FEE70F23CDE901344FF480630390CDE9C8
:1007C0000430214601A801F019FE00B1FEE710B087
:1007D00010BD704738B50E4B05461A784FF47A7342
:1007E000B3FBF2F30B4A1068B0FBF3F000F09CF897
:1007F000044658B90F2D09D8024629464FF0FF305C
:1008000000F042F82046044B1D6038BD0120FCE793
:10081000000000202400002004000020074A08B542
:100820001368032043F01003136000F01BF800204E
:10083000FFF7D0FFFFF7CDFF002008BD00200240EA
:10084000034A044B11681B780B441360704700BFC8
:10085000A400002000000020014B1868704700BF72
:10086000A400002007490302CA6803F4E06322F4ED
:10087000E0621204120C134343F0BF6343F40033ED
:10088000CB60704700ED00E0154B30B5DC68C4F379
:100890000224C4F10703251D042B28BF0423062DC1
:1008A0004FF0FF3594BF0024033C05FA03F321EA1F
:1008B0000303A54022EA0502A340002843EA0203FD
:1008C000ACBF00F16040074A4FEA0313DBB2ABBF95
:1008D00000F5614000F00F0080F80033135430BD84
:1008E00000ED00E014ED00E0002807DB01234109E2
:1008F000034A00F01F00834042F82130704700BFD8
:1009000000E100E000280CDB01220649430900F069
:100910001F008240203341F82320BFF34F8FBFF3E5
:100920006F8F704700E100E00138B0F1807F0BD29B
:100930004FF0E023F021054A586182F8231000208F
:10094000072298611A6170470120704700ED00E0AE
:10095000002808DB01224309034900F01F00824000
:10096000603341F82320704700E100E0704708B58C
:10097000FFF7FCFF08BD704710B5044650B143793E
:1009800003F0FF0213B90271FFF7F5FF0123002006
:10099000637110BD0120FCE790F821200346022A74
:1009A00006D0042282630120002283F820207047B1
:1009B0000268C06B116821F00E011160116821F00E
:1009C0000101116001211A6C01FA02F2426000205B
:1009D00083F82110E8E7000008B590F82130022BD9
:1009E00003D004238363012008BD03681A6822F042
:1009F0000E021A601A6822F001021A60174A934226
:100A00001FD0143293421ED0143293421DD01432A0
:100A100093421DD0143293421DD01432934214BF1E
:100A20004FF080734FF480130D4A5360012380F818
:100A30002130002380F82030436B03B19847002019
:100A4000D2E70123F0E71023EEE74FF48073EBE7E2
:100A50004FF48053E8E74FF48033E5E708000240A5
:100A60000000024090F8210070470000114AD3684E
:100A700013F0100305D01049CB6943F00203CB619A
:100A80001023D268500706D50B4943F00403CA6906
:100A900042F00102CA61074AD169C90708D5064870
:100AA000C16941F00401C161D16921F00101D16145
:100AB000D360704700200240A8000020064B186950
:100AC00010F0800007D0054A5A6002F188325A605F
:100AD0001869C0F3C0107047002002402301674529
:100AE000034A0020136943F080031361704700BF7D
:100AF0000020024070B50546FFF7AEFE0646114CD9
:100B0000E368D80712D4E368990644BF2023E36062
:100B1000E368DA0606D4E369DB0703D4E06810F083
:100B2000040007D0FFF7A2FF012003E06B1CE7D011
:100B30000DB9032070BDFFF78FFE801BA842DFD9DF
:100B4000F7E700BF002002402DE9F84FDFF894A03E
:100B50001F469AF818300546012B884691463FD02B
:100B600001234CF250308AF81830FFF7C3FF90BBD6
:100B7000012D03D0022D14BF042502250026334683
:100B8000DFF864B03401C4F12001A4F1200207FAB7
:100B900001F129FA04F4CAF81C300C4327FA02F2D6
:100BA0001443DBF81020A4B242F00102CBF810206D
:100BB0004CF2503028F81640FFF79CFFDBF810206D
:100BC00022F00102CBF8102028B90136F2B295428A
:100BD0004FF00003D6D800238AF81830BDE8F88F0C
:100BE0000220FBE7A8000020002002400022064B64
:100BF000DA61064B1A6942F002021A6158611A69F9
:100C000042F040021A617047A80000200020024014
:100C10002DE9F041264F05463B7E8846012B44D006
:100C200001243C7603684CF25030022B1AD1FFF7B6
:100C300061FF20B1012000233B76BDE8F0811D4C0F
:100C4000F86123694CF2503043F0040323612369B7
:100C500043F040032361FFF74DFF236923F00403B2
:100C60002361E8E7FFF746FF0028E3D14FF0FF33A9
:100C7000C8F800302046AE680E4CD5E9023203EBCE
:100C80008223B342D7D93046FFF7B0FF4CF2503041
:100C9000FFF730FF236923F00203236110B1C8F886
:100CA0000060C8E706F58066E7E70220C5E700BFF9
:100CB000A800002000200240044A08B55169014202
:100CC00002D0506102F008FB08BD00BF00040140E3
:100CD0002DE9F84606460F4691461D464FEA114A51
:100CE0003368BAF1010F0CBF5C699C6927EA040400
:100CF000A4B2B4FA84F46409A14501D0002025E02F
:100D00006A1CEED0FFF7A8FD089BC01AA84201D8C4
:100D1000002DE5D13368BAF1010F0CBF5B699B6907
:100D200027EA03039BB2B3FA83F35B099945D7D152
:100D3000002320220120336386F83D2086F83E30D0
:100D4000326C86F83C3042F020023264BDE8F8860E
:100D50007047000070B5044608B9012070BD90F8D6
:100D60003D3003F0FF021BB980F83C20FFF7F0FF95
:100D7000242384F83D3023681A6822F001021A60A7
:100D80001A6842F400421A601A6822F400421A609B
:100D900001F0D0FB3E4B65689D4294BF3D4B3E4BFE
:100DA0009842DAD93D4A2168B0FBF2F24B6823F051
:100DB0003F0313434B60431E35480E6A854226F0BD
:100DC0003F0639D8013232430A626A00B3FBF2F2BD
:100DD000531C40F6FC72C869134220F44F4020F0C7
:100DE000FF0045D104230343CB610A68D4E90730EF
:100DF00022F0C002034313430B608A68D4E9030363
:100E000022F40342034322F0FF0213438B60CA68BB
:100E1000D4E9053022F0FF0203431343CB600B6893
:100E2000002043F001030B602023206484F83D3050
:100E3000206384F83E0091E74FF4967042434FF4EC
:100E40007A70B2FBF0F2013232430A62C869A268DA
:100E500020F44F4020F0FF006AB119226A43B3FB2F
:100E6000F2F30133C3F30B0383B143F44043BAE716
:100E7000C3F30B03B7E705EB4502B3FBF2F2013214
:100E8000C2F30B0313B143F40043ACE70123AAE719
:100E9000A08601007F841E00FF083D0040420F0035
:100EA000704710B5044698B12423026880F83D309D
:100EB000136823F001031360FFF7F2FF00202064A2
:100EC00084F83C0084F83D00206384F83E0010BDA7
:100ED0000120FCE72DE9F04F044685B01F46884607
:100EE0009246FFF7B9FC94F83D300546202B03D01D
:100EF000022005B0BDE8F08F0090192301222046A2
:100F00004A49FFF7E5FE0028F2D194F83C30012B66
:100F1000EED0012384F83C30236800261A68DFF8FD
:100F20000CB1D20758BF1A6808F0FE085CBF42F047
:100F300001021A601A6822F400621A60242384F8FD
:100F40003D303B4B2664E36222684FF00111136889
:100F5000204643F4807313603B4600220095FFF760
:100F6000B7FE236838B11B680320DB0544BF4FF48C
:100F700000732364BDE7C3F81080FFF76DFC4FF0EA
:100F8000A009054623685A695B69C2F34002C3F3AE
:100F9000802394F83D10A02901D013431DD04FF0B9
:100FA0002009236884F83D905A6912F0020F1A68EC
:100FB00042F400721A6025D0002203925A6920463A
:100FC00003929B6901220393039B184919230095FF
:100FD000FFF77EFE88B101208BE7FFF73DFC401B49
:100FE000B84200D80FB984F83D9023685A695B690C
:100FF000C2F34002C3F38023CBE784F83D9084F82A
:101000003C0076E76FF4806259465A612046192306
:1010100001220095FFF75CFE0028DCD10136564521
:1010200092D384F83D9084F83C00D4E7020010008D
:101030000000FFFFF7B5002504460095019594F8E0
:101040003D500898202D02D0022003B0F0BD256845
:101050002E68B60503D4082801D001281BD146F21A
:10106000A817274E3668B6FBF7F619277E43019678
:10107000019E013E0196019E56B92023266384F805
:101080003D3084F83E60236C43F020032364DBE7AB
:10109000AE69B707ECD494F83C60012ED4D02E682A
:1010A000F6075EBF2E6846F001062E602E6826F415
:1010B00000662E60212684F83D60102684F83E608C
:1010C000002626646385638DE06261642385236B5B
:1010D00062620093009B112B05D1B0F52A0F02D05C
:1010E000B0F12A4F03D12B6843F480732B600020AA
:1010F00084F83C006B6843F4E0636B60A5E700BFD5
:1011000024000020F7B5002504460095019594F8C9
:101110003D500898202D02D0022003B0F0BD256874
:101120002E68B60503D4082801D001281BD146F249
:10113000A817364E3668B6FBF7F619277E43019698
:10114000019E013E0196019E56B92023266384F834
:101150003D3084F83E60236C43F020032364DBE7DA
:10116000AE69B707ECD494F83C60012ED4D00126C8
:1011700084F83C602E68F6075EBF2E6846F00106D4
:101180002E602E6826F400662E60222684F83D60CC
:10119000102684F83E60002626646385638DE06235
:1011A00061642385236B62620093638D9BB2022B83
:1011B00024D1202801D0102820D1009B122B2B688D
:1011C0001DD14FF4407223F480632B602B6843F4ED
:1011D00000632B60009B122B05D1B0F52A0F02D0C3
:1011E000B0F12A4F03D12B6843F480732B600020A9
:1011F00084F83C006B6813436B608EE72B6843F404
:1012000080634FF4E0622B60E4E700BF240000201D
:1012100037B5044690F83D0000F02800282830D16A
:1012200000292CD0002A2AD094F83C00012828D08C
:1012300025682868C0075EBF286840F00100286064
:10124000286820F400602860292084F83D002020D0
:1012500084F83E00002020646285628DE362019084
:101260006B6961620193AB6984F83C000193019B57
:101270006B68228543F4E0636B6003B030BD0120EE
:10128000FBE70220F9E737B5044690F83D0000F08F
:101290002800282830D100292CD0002A2AD094F800
:1012A0003C00012828D025682868C0075EBF286850
:1012B00040F001002860286820F4006028602A209F
:1012C00084F83D00202084F83E00002020646285E0
:1012D000628DE36201906B6961620193AB6984F88E
:1012E0003C000193019B6B68228543F4E0636B60D3
:1012F00003B030BD0120FBE70220F9E790F83D3054
:10130000202B14D1282380F83D30036800201A6870
:10131000D2075EBF1A6842F001021A601A6842F4EE
:1013200080621A605A6842F440725A607047022024
:10133000704770477047704710B590F83D10026DC8
:101340000346C9B282B9C26C0168012A826C05D118
:10135000D2B20A61026D02321A6510BDC2F30722D1
:101360000A611A6D0132F7E7026D012A03D1826C1E
:101370000168D2B2F4E7026D022A31D1222905D1E7
:1013800001680A6842F480720A60EAE7428D92B20C
:1013900072B121290AD1426A016812F8010B086171
:1013A0005A625A8D013A92B25A85D6E75B8DD4E7DC
:1013B000428D92B2002AD0D12129CED101684C6849
:1013C00024F4E0644C600C6844F400740C60202148
:1013D000026380F83D1080F83E20FFF7ACFFBCE7C9
:1013E00003685A69120644BF00221A61B5E77047C4
:1013F00070470000002373B5406A019390F83D20C8
:10140000344BD4B246F2A8121B68B3FBF2F323228A
:10141000534301930368019A02BB026C42F020021D
:101420000264D0E90D1201BB002A32D1196821F4FF
:101430008061196042851A6822F001021A6090F8F2
:101440003D20602A2CD1202380F83D30002380F8F5
:101450003E300364FFF7CCFF02B070BD019A013A41
:1014600001921A689205D6D4DBE700258D6232B965
:101470001D6825F480651D6042854A63DBE71E68B0
:10148000956226F480661E6045854D630021516398
:10149000D1E71D68916225F480651D604185F5E7FF
:1014A00004F02802282A0ED1196841F001011960C0
:1014B000196841F4806119600023036380F83D20BE
:1014C00007F03FF9C8E7202380F83D30002380F87B
:1014D0003E30F5E72400002010B590F83D2090F84C
:1014E0003E300446102BD9B2D2B2036801D0402955
:1014F0000CD1222A0AD11A6822F400621A602268EA
:101500005268120549D50022226307E002F0280143
:1015100028293DD10022226384F83D105A6812F434
:1015200000625BD05A68606B22F400625A6090F8E7
:101530002130012B3D4B37D04363FFF74DFA50B1BB
:101540002268606B136823F001031360202384F882
:101550003D30436B9847236C19071FBF22685368BF
:1015600023F4E063536094F83D30226CDBB2520701
:101570000DD5282B0BD12E4B2022E36200232046D1
:10158000236384F83D2084F83E3007F0AFF810BDA7
:1015900059680805B7D4602AB5D0202284F83D20C8
:1015A000002284F83E20AEE7A06B4363FFF714FAF5
:1015B0000028D0D023685A69510605D51A69636A94
:1015C0001A70636A013363622268A06B136823F0A8
:1015D00001031360202384F83D30BAE794F83D10EE
:1015E000602915D1202184F83D1022645A695206E1
:1015F00005D51A69636A1A70636A013363622268E7
:101600002046136823F001031360FFF7F1FEA2E701
:101610005A69500605D51A69636A1A70636A0133FC
:101620006362204607F08DF895E700BFF5130008C8
:101630000000FFFFF0B5044603688FB05A68C66A21
:1016400090F83E0094F83D101028C5B2C9B202D0FF
:10165000402D40F0E7829F69586910F0010F07D1D3
:10166000B6F52A0F02D0B6F12A4F51D10FB0F0BD16
:1016700096054DD5E26AB2F52A0F0CD10122E2623D
:1016800094F83E20402A11D1226D52B9626C02F0CA
:10169000FE021A61EAE7E26AB2F12A4FF0D10822AB
:1016A000EDE7626C42F00102D2B2F2E72269B2F5D4
:1016B000804F1AD194F83D20212A626C11D102F09A
:1016C000FE021A61626B0AB1926A2AB9A26B002A01
:1016D000CCD0926A002AC9D05A6842F400625A609B
:1016E000C4E742F00102D2B2EBE7226D32B9626C7C
:1016F000D21102F0060242F0F002CAE7226D012A7E
:10170000B4D1626CD21102F0060242F0F102C0E7DD
:10171000060703D5960501D5626CE4E7860740F11C
:10172000F280960540F1EF8094F83E10E26A256B56
:1017300094F83D00C9B2222840F0DD80206D40B908
:10174000402906D100905A6900929B690093009B42
:101750008CE7216D89B92069B0F5404F0DD1019119
:101760005A6901929A690192019A1A6842F4807248
:101770001A60236D0133236578E7618D89B251B911
:1017800002915A6902929A690292029A1A6842F484
:1017900000721A6019E0618D89B2012949D112F5F0
:1017A000803F1BD11A6822F480621A605A6812F4D2
:1017B00000620CD01A6822F480621A600022039240
:1017C0005A6903929B690393039B0023D3E7049216
:1017D0005A6904929A690492049AD7E7082A1CD09D
:1017E000202A1AD0122D0DD1012A16D11A6822F4FE
:1017F00080621A60002205925A6905929B690593DE
:10180000059BE2E7102AF1D8874941FA02F2D20794
:10181000ECD41A6842F48062EBE71A6822F4806222
:101820001A60002206925A6906929A690692069AEE
:10183000ACE7618D89B202293AD1102A03D87B49DD
:10184000D140CF0716D4196841F400611960002116
:10185000079159690791996907910799196821F4C6
:101860008061196059680E05AFD5202A10D912F58C
:10187000803F10E0196841F48061196000210891EF
:101880005969089199690891089959680D059CD57D
:10189000072A02D8012A98D105E0A2F10801644A7A
:1018A000CA40D00791D55A6842F480525A608CE7FA
:1018B000196841F4806119605968090505D5202A25
:1018C00016D8072A09D8012A0DD0002209925A6990
:1018D00009929B690993099B77E7A2F10801544A91
:1018E000CA40D207F1D55A6842F480525A60ECE7F8
:1018F00012F5803FE8E700220A925A690A929B6932
:101900000A930A9BB2E67F0740F194805E68360531
:101910003FF5ACAE070600F004063ED550053CD5B9
:10192000002E3DD194F83D20258D94F83E10D2B282
:10193000E06AC9B2C5B9212A18D1082858D0202890
:1019400056D010F5803F53D05A6822F4E0625A60B6
:1019500011232363002384F83E302023204684F89B
:101960003D30FFF7E6FC81E6212A05D040297FF4CF
:101970007DAE222A7FF47AAE628D92B21AB95A688D
:1019800022F48062ABE694F83E20402A16D120462D
:101990000FB0BDE8F040FFF7CFBC002E3FF466AEBD
:1019A00097057FF563AE212939D1E16A94F83D208E
:1019B000212A7FF45BAE628D92B24AB1626A12F85C
:1019C000011B19616262638D013B9BB263854DE629
:1019D00008290DD020290BD011F5803F08D0596877
:1019E00021F4E06159601123236384F83E20B4E7B9
:1019F0005A68204622F4E0625A601A6842F4007283
:101A00001A6000232022236384F83D2094F83E20AE
:101A100084F83E30402AA4D1FFF78DFC26E6402D05
:101A20007FF424AEB3E700BFEBFFFEFF140001001C
:101A30000101000159680E053FF518AE450600F09A
:101A4000040140F18680500540F18380002940F078
:101A5000838094F83D20222A7FF408AEE06A628DEC
:101A600092B2032A14D91A69636A1A70636A01333D
:101A70006362638D013B9BB26385638D9BB2032BD5
:101A80007FF4F4AD2268536823F480635360EDE57E
:101A9000E56A022D3FF473AF012A3FF670AF0B9158
:101AA00046F2A811784A1268B2FBF1F202EB820208
:101AB0000B920B9A013A0B920B99D1B9226C2046EA
:101AC00042F0200222645A6822F4E0625A601A69E5
:101AD000636A1A70636A01336362638D013B9BB270
:101AE0006385202384F83D3084F83E1006F029FEFB
:101AF000BCE51A6812F40072DBD1196821F4806128
:101B00001960596821F4E06159601969636A1970B4
:101B1000636A01336362638D013B9BB2638520235B
:101B200084F83D3094F83E3084F83E20402B04D1B8
:101B300022632046FFF75BFC98E5082801D02028A7
:101B400001D1002300E0122320462363FFF7F2FBBC
:101B50008CE500293FF48AAD92057FF587ADE26AF6
:101B6000608D616A80B2042809D15A6822F48062CB
:101B70005A601B690B70636A0133636223E7608DEF
:101B800080B203280CD15868042A20F48060586081
:101B9000EFD0022AEDD01A6822F480621A60E8E7DA
:101BA000608D80B20228E4D1042A33D007D8012AFC
:101BB00007D0022A2ED0186840F4007004E0102AE2
:101BC000F9D1186820F4806018601B690B70616A95
:101BD0004B1C6362638D013B9BB2638523681B6969
:101BE0004B70636A216801336362638D013B9BB272
:101BF00063854B6823F440734B60202384F83D30A9
:101C000094F83E30402B4FF0000384F83E3005D16D
:101C100023638EE7186840F48060D5E7082A90D0E7
:101C2000202A8DE7206C10B30025586987072DD531
:101C300096052BD5226C02B19D6994F83D2002F0E7
:101C40002802282A16D15A682F0622F480625A6088
:101C50004FF0000385F00401204654BFA289228B77
:101C6000C1F3800184F83C3006F00CFDFEE49D6970
:101C70005869DBE700220C9259690C919B6984F842
:101C80003C200C930C9BF1E424000020C60640F19C
:101C9000C280950540F1BF8094F83D505A68EDB27E
:101CA00022F4E0625A6000220D925A690D921A687D
:101CB00042F001021A600D9A1A6822F480621A60DA
:101CC0005A68100520D505F0F702222A3DD1A06BF5
:101CD0000268526892B26285628D92B21AB1226C29
:101CE00042F0040222645A6822F400625A60FEF74D
:101CF000B9FE012808D0A06B824B4363FEF76CFE4F
:101D000010B1A06B436B9847638D9BB2002B3CD105
:101D1000236C002B56D12A2D74D12363282320460F
:101D200084F83D3006F0F7FC94F83D30282B5AD16A
:101D3000754B2022E36200232046236384F83D2074
:101D400084F83E3006F0D2FC90E4606B0268526882
:101D500092B26285628D92B21AB1226C42F0040294
:101D600022645A6822F400625A60FEF77BFE012862
:101D700008D0606B634B4363FEF72EFE10B1606BBF
:101D8000436B9847638D9BB2D3B123685A6951075F
:101D90001ED423685A69520609D51A69636A1A70F3
:101DA000636A01336362638D013B9BB26385638D1C
:101DB0009BB2002BACD0236C43F004032364A7E751
:101DC000236CFBB120460FB0BDE8F040FFF784BBA9
:101DD0001A69636A1A70636A01336362638D013B37
:101DE0009BB26385D5E7236B222B7FF43FAC0023A6
:101DF0002022236384F83D2084F83E30204606F0FC
:101E00008AFC33E494F83D30282B91D0236B222BAD
:101E1000EDD0222DE9E701F0F701212900F00405BA
:101E200036D1070628D5560526D545BB94F83D0082
:101E3000628DC0B292B2002A3FF418AC626A12F806
:101E4000015B1D616262628D013A92B26285628DB0
:101E500092B2002A7FF40AAC29287FF407AC5A68B2
:101E6000204622F480625A602823216384F83D30A2
:101E700006F063FCFFF7FABB002D3FF4F7AB9505C6
:101E80007FF5F4AB628D92B2002A3FF4EFAB95E59B
:101E9000400627D5510525D53DBB94F83D20618DE1
:101EA000D2B289B200293FF4E1AB1969636A1970B3
:101EB000636A01336362638D013B9BB26385638D0B
:101EC0009BB2002B7FF4D2AB2A2A7FF4CFAB2268DF
:101ED000536823F48063536022232363282384F808
:101EE0003D308BE7002D3FF4C1AB92057FF5BEABD3
:101EF000628D92B2002A3FF4B9AB1A69636A1A7014
:101F000039E600BFF51300080000FFFFF8B50368CD
:101F1000044659695E6890F83E2011F48075D2B28B
:101F20000AD016F4807507D06FF4807001255861CF
:101F3000186840F40040186001F4806001F4006704
:101F4000890510D5F1050ED56FF4007145F0020535
:101F5000596160B917BB236C20462B432364BDE84D
:101F6000F840FFF7B9BA002849D0F1054AD5B4F8CE
:101F70002AC094F83D00202A6FF48061D4F830E044
:101F80001FFA8CFCC0B262D1BCF1000F0DD05961B8
:101F900045F00405002FDED0F205DCD56FF40062B9
:101FA000236845F008055A61D5E700F0F702212AB9
:101FB00004D02828EBD1BEF1210FE8D194F83D20C0
:101FC000E16AD2B2082901D020291ED1282A1CD1C9
:101FD000254A2046E2625A6822F4E0625A606FF4B1
:101FE00080625A611A6822F480621A6000232022FB
:101FF000236384F83D2084F83E3006F077FB0FB170
:10200000F305CBD4002DA6D1F8BD212A1BD116494A
:10201000E16222630021202284F83D2084F83E10F2
:102020005A6822F4E0625A606FF480625A611A685A
:1020300022F480621A605A69100648BF196120466E
:1020400006F07BFBDBE76FF480625A61D7E7102A6A
:10205000596145F0040501D0402A9BD11A6842F429
:1020600000721A6096E700BF0000FFFF90F83D0085
:102070007047006C704700002DE9F341054638B306
:102080000368DB0710D42B689F075ED42B68190701
:1020900000F195802B685A0700F1C180EB69002B95
:1020A00040F02C81002029E0904C636803F00C0381
:1020B000042B07D0636803F00C03082B0AD1636874
:1020C000DE0307D523689C03DDD56B68002BDAD1CE
:1020D000012013E06B68B3F5803F12D1236843F40D
:1020E00080332360FEF7B8FB064623689803CAD402
:1020F000FEF7B2FB801B6428F7D9032002B0BDE8CD
:10210000F0819BB9236823F480332360236823F490
:1021100080232360FEF7A0FB064623689903B2D50F
:10212000FEF79AFB801B6428F7D9E6E7B3F5A02FEA
:10213000236803D143F480232360CFE723F4803363
:102140002360236823F48023CBE7684C636813F093
:102150000C0F07D0636803F00C03082B10D16368E1
:10216000DA030DD423689B0702D52B69012BAFD16D
:1021700023686A6923F0F80343EAC203236085E712
:102180002A695B4B6AB101221A60FEF765FB0646BD
:1021900023689F07ECD4FEF75FFB801B0228F7D96A
:1021A000ABE71A60FEF758FB0646236898077FF5F1
:1021B0006DAFFEF751FB801B0228F6D99DE7AA6997
:1021C0004A4E4B4BE2B10122C3F88024FEF744FB98
:1021D0000446736A9B070DD54FF4FA52454B1B68B2
:1021E000B3FBF2F3019300BF019B5A1E0192002B37
:1021F000F9D14FE7FEF730FB001B0228E9D97CE755
:10220000C3F88024FEF728FB0446736A9F077FF516
:1022100041AFFEF721FB001B0228F6D96DE7334CD6
:10222000E369D80024D40127E36943F08053E361D4
:10223000E36903F080530093009B2F4E3368D90568
:1022400018D5EB68012B26D1236A43F001032362E2
:10225000FEF702FB41F288380646236A9B073FD50A
:10226000002F3FF41BAFE36923F08053E36115E7D0
:102270000027E2E7336843F480733360FEF7ECFA3B
:1022800080463368DA05DCD4FEF7E6FAA0EB0800F6
:102290006428F6D931E7ABB9236A41F2883823F0D4
:1022A00001032362236A23F004032362FEF7D4FAB6
:1022B0000646236A9807D3D5FEF7CEFA801B404521
:1022C000F7D91AE7052B236A03D143F004032362ED
:1022D000BAE723F001032362236A23F00403B6E77D
:1022E000FEF7BAFA801B4045B7D906E70010024056
:1022F0000000424224000020007000402A4C626826
:1023000002F00C02082A3ED00022022B274B1A664C
:102310002CD1FEF7A1FA06462368990120D42B6A36
:10232000B3F5803F05D16268A96822F400320A4300
:102330006260696A62680B4322F4741213430122DB
:1023400063601A4B1A66FEF787FA054623689A01FE
:102350003FF5A8AEFEF780FA401B0228F6D9CCE67E
:10236000FEF77AFA801B0228D6D9C6E6FEF774FA81
:10237000054623689B017FF595AEFEF76DFA401B7D
:102380000228F6D9B9E6012B3FF4A2AE60682B6AA9
:1023900000F480329A427FF49BAE6B6A00F47010B6
:1023A000C01A18BF0120A9E60010024000004242F6
:1023B0000D4A536803F00C01082912D10B48C3F3EE
:1023C0008341DB03405C09D55368094AC3F34043AA
:1023D0005043084AD35CB0FBF3F07047064B5843B8
:1023E00070470348704700BF00100240FEC5000858
:1023F00000127A00FCC5000800093D002DE9F041FB
:102400000D46044610B90120BDE8F081444A136826
:1024100003F007038B4228D321688E0730D4CA0704
:1024200043D43F4A136803F00703AB4265D82268E0
:102430003C4D12F0040F6CD1130706D56B6822696E
:1024400023F4605343EAC2036B60FFF7B1FF6B688C
:10245000354AC3F30313D35CD840344B1860344B74
:102460001868FEF7B7F90020CEE7136823F00703DA
:102470000B431360136803F007038B42C3D1CBE710
:10248000284B11F0040F1EBF5A6842F4E0625A60F4
:10249000080742BF5A6842F460525A605A68A068FE
:1024A00022F0F00202435A60B9E762681D4E012A29
:1024B00033681AD113F4003FA5D0736841F288380D
:1024C00023F0030313437360FEF7C6F907467368EE
:1024D000626803F00C03B3EB820FA2D0FEF7BCF9E5
:1024E000C01B4045F3D903208EE7022A02D113F026
:1024F000007FE1E713F0020FDEE7136823F0070324
:102500002B431360136803F00703AB427FF47BAFE8
:102510008DE76B68E16823F4E0630B436B608BE746
:10252000002002400010024058C60008240000208D
:1025300004000020044B054A5B68C3F30223D35C0C
:10254000034A1068D84070470010024050C6000887
:1025500024000020044B054A5B68C3F3C223D35C0C
:10256000034A1068D84070470010024050C6000867
:10257000240000200F230360184B1A6851034EBF3C
:102580004FF4A0221A6802F4803242605A6802F4C2
:10259000003282601A6802F0010202611A68C2F316
:1025A000C40242611A6A52074EBF05221A6A02F03B
:1025B0000102C2605A6A02F0010282611A6812F0D6
:1025C000807F0CBF01220222C2615A6802F480326D
:1025D00002625B6803F470134362704700100240AC
:1025E0000F2303600B4B5A6802F0030242605A68E3
:1025F00002F0F00282605A6802F4E062C2605B6836
:10260000DB0803F4E0630361034B1B6803F007037B
:102610000B6070470010024000200240704710B568
:102620000446002851D0436A002B4AD14268B2F5D3
:10263000827F00D0C3610023A36294F8513003F07D
:10264000FF0223B9204684F85020FFF7E7FF02235A
:10265000226884F851301368A06823F040031360A7
:10266000636800F4044003F482730343E068A169E3
:1026700000F400600343206900F002000343606936
:1026800000F00100034301F400700343E069090C0A
:1026900000F038000343206A01F0040100F08000DC
:1026A0000343A06A00F40050034313605160D369F0
:1026B000002023F40063D3610123606584F8513066
:1026C00010BD0023C0E90433B5E70120F8E77047E7
:1026D0007047036870B5DD681E690446B1070DD503
:1026E000AA070BD56FF002021A61012202779B69DB
:1026F0009B0769D000F003FD00232377710710D5F5
:102700006A070ED56FF00402236820461A61022280
:1027100022779B6913F4407F5CD000F0F0FC00232B
:10272000237733070FD528070DD56FF008022368EC
:1027300020461A6104222277DB69990750D000F005
:10274000DEFC00232377F20610D5EB060ED56FF0E2
:102750001002236820461A6108222277DB6913F4ED
:10276000407F43D000F0CBFC00232377F00708D54F
:10277000E90706D56FF00102236820461A6100F0D0
:102780009BFC320608D52B0606D56FF08002236825
:1027900020461A6100F091F8700608D5690606D542
:1027A0006FF04002236820461A61FFF791FFB206DE
:1027B00022D5AB0620D56FF0200223682046BDE865
:1027C00070401A6100F078B800F097FC2046FFF7DF
:1027D0007EFF91E700F091FC2046FFF778FF9EE72F
:1027E00000F08BFC2046FFF772FFAAE700F085FCA3
:1027F0002046FFF76CFFB7E770BD0000174A03687B
:1028000090420AD0B0F1804F07D0A2F594329042A6
:1028100003D002F58062904207D14A6823F070032A
:102820001343CA6823F4407313434A6923F08003B7
:10283000134303608B68C3620B688362074B984243
:1028400004BF0B690363012343610369DB0742BFD4
:10285000036923F001030361704700BF002C0140AE
:1028600010B5044630B390F83D3003F0FF021BB9B9
:1028700080F83C2001F0F8F80223206884F83D300D
:10288000211DFFF7BBFF0123002084F8463084F8A8
:102890003E3084F83F3084F8403084F8413084F88A
:1028A000423084F8433084F8443084F8453084F86A
:1028B0003D3010BD0120FCE770477047026802F10F
:1028C0000C0353E8003F23F490730C3242E80031CC
:1028D00002680029F2D102F1140353E8003F23F00B
:1028E000010302F1140C4CE800310029F3D1036B11
:1028F000012B0BD102F10C0353E8003F23F010032E
:1029000002F10C0C4CE800310029F3D1202380F8AF
:10291000423000230363704710B504460368C16862
:102920001A6922F440520A431A6182680069D96820
:102930000243606921F4B05121F00C0102430A43C3
:10294000DA605A69A16922F440720A435A610E4A58
:10295000934215D1FFF7FEFD1923434362682068B7
:102960009200B3FBF2F36422B3FBF2F102FB1133EA
:102970001B013233B3FBF2F303EB0113836010BD91
:10298000FFF7D8FDE8E700BF00380140704710B5F9
:10299000044648B390F8413003F0FF021BB980F8B9
:1029A0004020FFF7F3FF2423226884F84130D368E6
:1029B000204623F40053D360FFF7AEFF23680020C6
:1029C0001A6922F490421A615A6922F02A025A6165
:1029D000DA6842F40052DA602023606484F84130FF
:1029E00084F84230606310BD0120FCE710B5044656
:1029F00068B390F8413003F0FF021BB980F8402023
:102A0000FFF7C4FF2423226884F84130D3682046AE
:102A100023F40053D360FFF77FFF236800201A6977
:102A200022F490421A615A6922F022025A615A69CC
:102A300042F008025A61DA6842F40052DA60202358
:102A4000606484F8413084F84230606310BD012036
:102A5000FCE790F84130202B10D189B182B1C284BB
:102A600082840023212201620168436480F84120AE
:102A7000CA68184642F08002CA6070470220704758
:102A80000120704708B50023406AC385C38401F064
:102A900099F908BD704790F8423007B5222B42D112
:102AA00081680268B1F5805F836A3FD101690029BE
:102AB0003FD15268C2F3080223F8022B8362C38D10
:102AC000013B9BB2C385002B2DD10268D16821F058
:102AD0002001D160D16821F48071D160516921F069
:102AE00001015161202280F842204363026B012AD8
:102AF000026828D1036302F10C0353E8003F23F07E
:102B0000100302F10C0C4CE800310029F3D11368DA
:102B1000DB0605D501911368019353680193019B6E
:102B2000818DFFF7B7FF03B05DF804FB39B9016988
:102B300029B95268D2B21A70836A0133BEE752686B
:102B400002F07F02F7E701F037F9ECE7036873B5AD
:102B50001A6804461607D9685D690AD1960640F1DD
:102B60008B808D0640F1888002B0BDE87040FFF791
:102B700092BF15F001054BD012F0010F02F00403D3
:102B800063D11BB1636C43F002036364930749D5BF
:102B9000636C12F0080F43F00403636403D0636CAA
:102BA00043F008036364636C002B5FD0920604D586
:102BB0008B0602D52046FFF76EFF26682046736914
:102BC000626C03F0400302F0080253EA02054FD0A2
:102BD000FFF774FE73695E0645D5226802F114039F
:102BE00053E8003F23F04003143242E8003100294B
:102BF000F3D1E06B002836D0894B4363FDF7ECFE40
:102C0000002833D0E06B436B02B0BDE8704018473A
:102C100011F4907F30D012F0010F02F0040307D1BD
:102C200090070DD41007BED501F020032B43B5E764
:102C3000CE050FD4002BF3D19607F3D5002DA7D1E5
:102C40001507B0D511F0200FA8E7C80502D4002B56
:102C500098D1F1E7636C560743F001036364EBD549
:102C6000002DDDD08EE7204601F0ACF802B070BD3B
:102C700001F0A8F86564F9E7206B012840F0948022
:102C8000D50640F19180C80640F18E800022019265
:102C90001A6801925A680192019A5A6952064DD5F2
:102CA000E16B0A68526892B2002ADFD0A08D904290
:102CB000DCD9E2858A69202A36D003F10C0252E879
:102CC000002F22F4807203F10C0040E8002100295B
:102CD000F3D103F1140252E8002F22F0010203F1B4
:102CE000140040E800210029F3D103F1140252E856
:102CF000002F22F0400203F1140040E800210029D7
:102D0000F3D1202284F84220216303F10C0252E81F
:102D1000002F22F0100203F10C0040E800210029EE
:102D2000F3D1E06BFDF738FE02236363E38DA18DE1
:102D3000C91A89B22046FFF7ADFE97E7E28DE08D14
:102D4000A18D80B292B2002890D0891A89B2002950
:102D50008CD003F10C0252E8002F22F4907203F1A0
:102D60000C0545E800200028F3D103F1140252E8D5
:102D7000002F22F0010203F1140545E8002000288D
:102D8000F3D1202284F84220206303F10C0252E8A0
:102D9000002F22F0100203F10C0545E80020002866
:102DA000F3D102236363C5E7160628D50D0626D5A1
:102DB00094F84120212A7FF459AFA168226AB1F525
:102DC000805F17D12169A9B932F8021BC1F308014C
:102DD00059602262E28C013A92B2E284002A7FF4C6
:102DE00045AFDA6822F08002DA60DA6842F0400229
:102DF000DA603BE7511C216212785A60EAE750061C
:102E00007FF534AF4A067FF531AFDA68204622F00D
:102E10004002DA60202384F8413000F0D0FF25E73B
:102E2000852A000890F84030012B11D02423026835
:102E300080F84130D36823F00C0343F00803D360DB
:102E4000202380F84130002380F840301846704736
:102E50000220704790F84030012B11D024230268E3
:102E600080F84130D36823F00C0343F00403D360AF
:102E7000202380F84130002380F840301846704706
:102E80000220704790F8412090F8420010437047AC
:102E90000023C285436422238285026980F8423080
:102EA000816203681AB1DA6842F48072DA605A69A2
:102EB000002042F001025A61DA6842F02002DA6032
:102EC000704770B490F84260202E06D141B13AB1FB
:102ED0000024046370BCFFF7DBBF022070BC7047A6
:102EE0000120FBE7836810B504462BB1032201469D
:102EF00098470023C4E9023310BD836810B5044627
:102F000013B1032201469847204610BD0B4B98424F
:102F10000BD0B0F1804F0AD0A3F59433984208D07B
:102F200003F58063984206D0FEE700207047012039
:102F30007047022070470320704700BF002C0140FB
:102F4000024670B5044652F8100FFFF7DFFF054642
:102F5000104600F01BFD0023084A04F1600642F809
:102F60002530E36004F1B005B54204D0103D284699
:102F7000FFF7C3FFF8E7204670BD00BFC800002080
:102F8000F8B504460846FFF7C1FF236903B1FEE721
:102F90001B4D04F10C0245F820200E2204F110060E
:102FA0003046C4E90C33C4E90E33C4E91033C4E934
:102FB0001623216184F82C30A36484F84C3084F803
:102FC0004D30E46000F09EFC04F1600504F1B007B0
:102FD00028461035FFF786FFBD42F9D100234FF692
:102FE000FF72C4E90033C4E90632C4E90833A360C0
:102FF000636180233046A362BDE8F840FFF730BC30
:10300000C8000020034B186810B10430FFF761BB03
:10301000704700BFC8000020FFF7F4BF034B58689B
:1030200010B10430FFF755BB704700BFC800002047
:10303000034B986810B10430FFF74BBB704700BFDB
:10304000C8000020034BD86810B10430FFF741BB23
:10305000704700BFC80000200022C0E90022C0E97C
:1030600002227047F8B504460E4600F1600500F1F3
:10307000B00728461035FFF7EFFFBD42F9D1002316
:10308000204631462361FFF77BFF2046F8BD82686A
:1030900010B50AB906F010FDC368BDE81040184726
:1030A00008B500B9FEE700F02BFC0068836E13B191
:1030B0006030FFF7ECFF08BDFFF7F2BF10B500B9B5
:1030C000FEE7037F013B072B10D8DFE803F0041471
:1030D0000F100F0F0F12012400F012FC00680634CD
:1030E00000EB041083680BB1FFF7D1FF10BD032480
:1030F000F2E70424F0E70224EEE7FFF7DFBFFFF773
:10310000DDBF08F0EDBD08F0F3BD000086B0042877
:1031100041D8DFE800F003101C2834001F4B204882
:103120009A6942F004029A619B6903F004030193D7
:10313000019B06B07047194B1A489A6942F0080281
:103140009A619B6903F008030293029BF1E7134B1A
:1031500015489A6942F010029A619B6903F01003C6
:103160000393039BE5E70D4B10489A6942F0200258
:103170009A619B6903F020030493049BD9E7074BF2
:103180000B489A6942F040029A619B6903F0400340
:103190000593059BCDE70020CBE700BF0010024060
:1031A00000080140000C01400010014000140140E3
:1031B00000180140F8B51449074600F059FBFFF725
:1031C000A5FE124E044656F8203073B9B020FFF722
:1031D00098FF0D490546384600F04AFB014628464F
:1031E000FFF740FF56F824301D6056F824301C6865
:1031F00044B12046FFF7A4FE2046BDE8F840B021C8
:10320000FFF781BFF8BD00BFDCC20008C800002086
:10321000FDF722BB08B5FDF713FBFDF7A8FB02F095
:10322000FDF908BD704700000F4B84B0DA6942F029
:103230008052DA61DA6902F080520192019A9A6949
:1032400042F001029A619A6902F001020292029A26
:103250005A6942F040025A615B6903F040030393EC
:10326000039B04B0704700BF001002400C4BD3F822
:10327000FC20D2015EBFD3F8FC2042F08072C3F87C
:10328000FC200022074B5A601A6842F001021A60C3
:1032900000BF00BF00BF5868B0FA80F04009704717
:1032A00000ED00E0001000E008B5FFF7BDFFFFF7FC
:1032B000DDFFFDF7B3FAFFF7B5FFFDF75FFABDE8F5
:1032C00008400148FDF758BB1C0000200023C0E95E
:1032D0000033C0E9023370470023012803F10102E3
:1032E0000AD11422DBB25343054A181D10448168E9
:1032F00029B11A441369184713464008EDE770478F
:10330000D80000200120FDF7D7BC0220FDF7D4BC77
:103310000420FDF7D1BC0820FDF7CEBC1020FDF73E
:10332000CBBC38B505242025A8B2FDF7C5FC013C6F
:103330004FEA4505F8D138BD38B506244FF480650D
:10334000A8B2FDF7B9FC013C4FEA4505F8D138BDFC
:10335000344A08B51046062300F8043BFFF7B6FFD1
:10336000072302F118001375FFF7B0FF082302F1DD
:103370002C0082F82830FFF7A9FF092302F1400052
:1033800082F83C30FFF7A2FF0A23172102F1540014
:1033900082F85030FFF79AFF02F1680082F864105B
:1033A000FFF794FF02F17C0082F87810FFF78EFFA0
:1033B00002F1900082F88C10FFF788FF02F1A40060
:1033C00082F8A010FFF782FF82F8B410282102F1E2
:1033D000B800FFF77BFF02F1CC0082F8C810FFF7BE
:1033E00075FF02F1E00082F8DC10FFF76FFF02F1D9
:1033F000F40082F8F010FFF769FF02F5847082F89C
:103400000411FFF763FF02F58E7082F81811FFF7C1
:103410005DFFBDE8084002F5987082F82C11FFF7B7
:1034200055BF00BFD800002038B5054CA4F5A075E5
:10343000143C201DFFF761FDAC42F9D138BD00BF3F
:10344000180200207B4B82B09A69013842F00102D9
:103450009A619B6903F001030193019B23282CD8F7
:10346000DFE810F024002D0034003B00400047004E
:103470004C00530058005F0068006D0074007D0030
:103480008200890092009B00A000A700B000B50058
:10349000BC002B002B002B00C100C8002B002B0010
:1034A0002B002B00CD00D200D900E000624A536807
:1034B00043F0E06343F00103536002B070475E4A9B
:1034C000536823F0010343F0E063F5E75A4A536879
:1034D00043F0E06343F00203EEE7574A536823F0FA
:1034E0000203F0E7544A536843F0E06343F00403F7
:1034F000E2E7514A536823F00403E4E74E4A536875
:1035000043F0E06343F00803D6E74B4A536823F0E7
:103510000803D8E7484A536843F0E06343F03003B8
:10352000CAE7454A536823F0300343F0E06343F0B1
:103530001003C1E7404A536823F03003C3E73E4A13
:10354000536843F0E06343F0C003B5E73A4A536879
:1035500023F0C00343F0E06343F04003ACE7364A96
:10356000536823F0C003AEE7334A536843F0E06387
:1035700043F44073A0E7304A536823F4407343F0A8
:10358000E06343F4007397E72B4A536823F44073D6
:1035900043F0E06343F480738EE7274A536823F4D3
:1035A000407390E7244A536843F0E06343F4406378
:1035B00082E7214A536823F4406343F0E06343F415
:1035C000006379E71C4A536823F440637BE71A4A97
:1035D000536843F0E06343F480536DE7164A536841
:1035E00023F480536FE7144A536843F0E06343F4D5
:1035F000004361E7104A536823F4004363E70E4A2F
:10360000536823F0E06357E70B4A536823F0E06305
:1036100043F0807350E7084A536823F0E06343F0B7
:10362000007349E7044A536823F0E06343F0806382
:1036300042E700BF001002400000014091FAA1F3F0
:10364000B3FA83F370B50D0E0F2691FAA1F1B1FA1A
:1036500081F144599B0006FA03F3890024EA03042C
:103660008A402243425170BD91FAA1F3B3FA83F329
:1036700070B50D0E042691FAA1F1B1FA81F1445909
:103680009B0006FA03F3890024EA03048A402243DC
:10369000425170BD431C04D00C3151F80C3C5A1CF3
:1036A00001D100207047834201F10C01F5D10120C6
:1036B00070470000431C2DE9F34107460E4600D138
:1036C000FEE75C4B00F00F02C0F3031001F00708A7
:1036D00053F82250FFF71AFDB8F1010F044615D137
:1036E00095FAA5F3B3FA83F30321280E22589B0021
:1036F00001FA03F322EA030295FAA5F3B3FA83F37E
:103700009B00994011432150012247E0C6F3062057
:10371000B8F1030F0AD801A353F828F02F37000897
:103720000937000893370008B5370008FEE7FFF7B0
:1037300089FE082229462046FFF780FF95FAA5F268
:103740002B0EB2FA82F2E1580F2392009340C6F397
:1037500001160B4095FAA5F272BB012E45D0022E40
:1037600057D0354B9A6942F001029A619B6903F088
:1037700001030193019BA7F10D03012B4DD82F4AA3
:10378000536823F0E06343F08063536002B0BDE808
:10379000F0817F2801D0FFF755FE092229462046F7
:1037A000FFF74CFF16F0080218BF04222946FFF766
:1037B0005BFFC3E70022BDE7B2FA82F2012E4FEAB7
:1037C000820223FA02F309D0022E1BD0082BC8D1A3
:1037D000042229462046FFF731FFC2E7042B04D11B
:1037E000082229462046FFF729FF01232A0A92FAD8
:1037F000A2F2B2FA82F2E168934021EA15210B436A
:10380000E360AEE7042B04D1082229462046FFF7E7
:1038100015FFE36823EA1523F2E70F2F02D0133FC9
:10382000012FB3D8054A536823F0E06343F00073D7
:10383000ABE700BF10C600080010024000000140C6
:10384000431C06D17047834202D18968FFF732BF1B
:103850000C310B685A1CF6D1FEE70B685A1C01D1DB
:1038600000207047834201D1486870470C31F4E76B
:10387000431C01D0FFF7F1BF002070474B6813B91C
:103880004FF0FF307047834201D1086870470C3118
:10389000F4E708B1FFF7F2BF4FF0FF30704703467F
:1038A0008B42084604D01BB100290CBF18460020EB
:1038B000704700000F4B1A6842F001021A60596805
:1038C0000D4A0A405A601A6822F0847222F480324B
:1038D0001A601A6822F480221A605A6822F4FE02E2
:1038E0005A604FF41F029A604FF00062034B9A60D7
:1038F000704700BF001002400000FFF800ED00E03C
:103900000438704703681D4A84B093420BD11C4BA6
:103910009A6942F400629A619B6903F40063009320
:10392000009B04B07047B3F1804F0BD103F5043313
:10393000DA6942F00102DA61DB6903F00103019305
:10394000019BEEE70F4A93420AD10D4BDA6942F030
:103950000202DA61DB6903F002030293029BE0E7F3
:10396000094A9342DDD1064BDA6942F00402DA617A
:10397000DB6903F004030393039BD2E7002C0140AF
:103980000010024000040040000800400368124A92
:10399000934206D102F56442936923F40063936174
:1039A0007047B3F1804F05D10C4AD36923F001036E
:1039B000D36170470A4A934205D102F50332D369B5
:1039C00023F00203F4E7074A9342F2D102F50232F0
:1039D000D36923F00403EBE7002C01400010024000
:1039E0000004004000080040431C10D00C4B9842DB
:1039F00010D007D8B0F1804F0ED0A3F58063984265
:103A00000CD0FEE7074B9842FBD1192070476FF0AE
:103A10000D0070471E2070471C2070471D20704706
:103A200000080040002C0140431C10D00C4B984271
:103A300010D007D8B0F1804F0ED0A3F58063984224
:103A40000CD0FEE7074B9842FBD11B2070476FF06C
:103A50000D0070471E2070471C2070471D207047C6
:103A600000080040002C014038B50446FFF74AFF2B
:103A70000068FFF7B9FFD4E91212FCF705FF2068D0
:103A8000FFF7B2FFFCF730FF22681046FFF7CCFFCC
:103A900005461046FFF7A8FF85420BD0D4E9121265
:103AA0002846FCF7F1FE2068FFF7BEFFBDE838406E
:103AB000FCF71ABF38BD00002DE9F04F8B46924647
:103AC0009946044685B018B9002005B0BDE8F08FCE
:103AD0006249406DFFF7CCFE61490646A06DFFF7D5
:103AE000C7FE60490746E06DFFF7C2FE5E49054626
:103AF000206EFFF7BDFE8046002EE5D0A36D01339A
:103B000001D0002FE0D0E36D013301D0002DDBD0D8
:103B1000236E013302D0B8F1000FD5D039463046BC
:103B2000FFF7BDFE0146206010B9FFF7B8FE206028
:103B300029462068FFF7B3FE41462060FFF7AFFE3D
:103B400020600028C0D0494B984252D103F5584319
:103B5000DA6842F48042DA60DA6822F48042DA609D
:103B60009A6942F480429A619B69002203F480437F
:103B70000193019B25233949606D84F8652084F801
:103B80006430FFF75DFE1FB13549A06DFFF758FEA9
:103B90002DB13449E06DFFF753FE4FF48075B8F155
:103BA000000F05D03049206E45F40075FFF748FE40
:103BB00094F865202E4B261D43F8226023680022CE
:103BC000C4E9013B0E9B94F96400C4E904390C2359
:103BD0000121C4E90635C4F80CA02262FCF754FEAA
:103BE0003046002F37D1FEF701FFB0FA80F04009D0
:103BF0006BE7204B984215D103F5E6331A6942F47E
:103C000000321A611A6922F400321A61DA6942F448
:103C10000032DA61DB69012203F400330293029B74
:103C20002623A8E7144B98427FF44EAF134E02228E
:103C3000336943F480233361336923F48023336190
:103C4000F36943F48023F361F36903F4802303935E
:103C5000039B27238FE7FEF79AFEC6E7A0C2000862
:103C600064C2000828C20008ECC100080038014006
:103C700018020020004400400048004000100240AC
:103C800008B5074B90F8652053F82200FFF7FAF8C3
:103C900000F02200A0F122035842584108BD00BFA5
:103CA0001802002008B5074B90F8652053F8220051
:103CB000FFF7E8F800F02100A0F121035842584135
:103CC00008BD00BF1802002070B50E46054610B9A9
:103CD0004FF0FF3070BDFFF7D3FF04460028F7D147
:103CE000294611F8663F0122337095F86500034BB1
:103CF00053F82000FFF7E5F82046EBE71802002014
:103D000038B50D460446B8B1FFF7BAFFA0B994F92B
:103D10006400E564FCF7F6FD94F86500074B04F1D8
:103D2000660153F820000122FFF7CBF894F96400F4
:103D3000BDE83840FCF7D8BD38BD00BF18020020F0
:103D400038B515460446B8B1016590F96400FCF732
:103D5000D9FDB4F87630E16E9BB294F86500194451
:103D6000064BAAB253F82000FEF773FE94F96400E4
:103D7000BDE83840FCF7B8BD38BD00BF18020020D0
:103D800048B1836D013306D190F86520024B53F89A
:103D90002200FFF747B870471802002048B1836D32
:103DA000013306D190F86520024B53F82200FFF74B
:103DB00051B8704718020020836C04381847C36C50
:103DC0000438184730B5044650F8043985B01D68EA
:103DD00015F0010512D0002200921A6800925B686B
:103DE0000093009BFFF74CFF40BB0122204604F1EB
:103DF000620105B0BDE83040FFF763B8196811F003
:103E0000020106D001951A6801925B680193019B3B
:103E1000E8E71A6812F0040206D002911A680292CA
:103E20005B680293029BDDE719680907DAD5039204
:103E30001A6803925B680393039BD3E705B030BD18
:103E400008B52520FCF784FD024B1868BDE8084042
:103E5000FEF77CBE18020020262008B5FCF778FD8E
:103E6000034B586818B1BDE80840FEF76FBE08BDA7
:103E700018020020272008B5FCF76AFD034B98685C
:103E800018B1BDE80840FEF761BE08BD1802002069
:103E9000FEE700001622024B4FF0FF301A60704719
:103EA000440E0020012070474FF0FF3200F108035C
:103EB000C0E90223436003610023036070470023CD
:103EC0000361704743689A684B608A6051609960EB
:103ED0000368086101330360704730B50C68631CE8
:103EE0000AD103695A684A6091608B60596003681F
:103EF00008610133036030BD00F1080213465268C7
:103F00001568A542FAD9EDE70369D0E901128A6084
:103F100051605968814208BF5A60002202611A68E4
:103F2000013A1A601868704710B5044601F02AFC7F
:103F3000A46B01F047FCB4FA84F0400910BD70B5E1
:103F40001646026C0446856B42B906689EB98068C5
:103F500001F09CF8A6600135A56370BD6EB940689C
:103F600008F074F86368226C1344A268636093429B
:103F700024BF236863600020EDE7C06808F066F89E
:103F8000226CE36851429B1A2268E36093423EBF71
:103F9000A3685B18E360022EEDD10DB1013DEAE7A5
:103FA0002846D8E703461A6C084610B462B1DC68AC
:103FB000996814448C4228BF1968DC6028BFD96016
:103FC000D96810BC08F042B810BC704770B5044600
:103FD00001F0D8FB94F8455004F124066DB2002D91
:103FE00014DCFF2384F8453001F0ECFB01F0CAFB40
:103FF00094F8445004F110066DB2002D12DCFF233A
:1040000084F84430BDE8704001F0DCBB636A002BEB
:10401000E7D0304600F052FF08B100F0D9FF013D73
:104020006DB2DCE72369002BE9D0304600F046FF93
:1040300008B100F0CDFF013D6DB2DEE738B50D46A9
:10404000044640B94FF0500383F31188BFF36F8FDC
:10405000BFF34F8FFEE701F095FBD4E90F314B43DF
:104060002268D0185B1AA060626000201A44FF2307
:10407000A063E26084F8443084F84530A5B9236930
:1040800073B104F1100000F019FF48B14FF0E023C4
:104090004FF08052C3F8042DBFF34F8FBFF36F8FE3
:1040A00001F090FB012038BD04F11000FFF7FCFE89
:1040B00004F12400FFF7F8FEF2E7F8B50D461746C5
:1040C000064640B94FF0500383F31188BFF36F8F5A
:1040D000BFF34F8FFEE74843503001F0F7FA044634
:1040E00058B165B100F1500301212046C4E90F65C4
:1040F0002360FFF7A3FF84F84C702046F8BD034609
:10410000F2E7F0B585B00E461D460446019240B96F
:104110004FF0500383F31188BFF36F8FBFF34F8FBE
:10412000FEE751B9036C43B14FF0500383F311889C
:10413000BFF36F8FBFF34F8FFEE7022D0BD1E36B01
:10414000012B08D04FF0500383F31188BFF36F8F1A
:10415000BFF34F8FFEE700F041FF08B9019B03BB9F
:1041600001F010FBA26BE36B9A4223D22A46314640
:104170002046FFF7E4FE636A1BB104F1240000F05F
:104180009DFE48B14FF0E0234FF08052C3F8042D5C
:10419000BFF34F8FBFF36F8F01F014FB012005B009
:1041A000F0BD4FF0500383F31188BFF36F8FBFF35F
:1041B0004F8FFEE7022DD9D000231F4637E013B9F9
:1041C00002A800F0BDFE01F0FDFA00F0B1FC01F024
:1041D000D9FA94F84430FF2B08BF84F8447094F85F
:1041E0004530FF2B08BF84F8457001F0EBFA01A9B8
:1041F00002A800F0B1FE002839D101F0C3FAA26B89
:10420000E36B9A421AD101F0DDFA019904F1100032
:1042100000F01AFE2046FFF7D9FE00F039FDD8B1B4
:1042200001F0B0FAA36BE26B9A429FD80123019A86
:10423000002AC4D101F0C6FA0020B0E701F0C2FAAA
:104240002046FFF7C3FE00F023FD01F09BFAA26BAE
:10425000E36B9A42EAD289E74FF0E0234FF08052B5
:10426000C3F8042DBFF34F8FBFF36F8FEDE72046E8
:10427000FFF7ACFE00F00CFDDEE770B506465020FF
:1042800001F024FA044688B1002501210060C0E94C
:104290000F15FFF7D3FE2B462A462946204684F801
:1042A0004C60A5602560E560FFF72BFF204670BDE0
:1042B0002DE9F843894617461E46044640B94FF09B
:1042C000500383F31188BFF36F8FBFF34F8FFEE767
:1042D00051B9036C43B14FF0500383F31188BFF31E
:1042E0006F8FBFF34F8FFEE7022E0BD1E36B012BD5
:1042F00008D04FF0500383F31188BFF36F8FBFF3E3
:104300004F8FFEE701F016FBEFF311884FF05003DB
:1043100083F31188BFF36F8FBFF34F8FA26BE36BF3
:104320009A4201D3022E1ED194F845503246494696
:1043300020466DB2A36BFFF702FE6B1C0ED1636AC1
:104340003BB104F1240000F0B9FD10B10FB101231D
:104350003B60012088F31188BDE8F88301356DB218
:1043600084F84550F5E70020F4E7F0B585B00E4637
:104370000446019240B94FF0500383F31188BFF314
:104380006F8FBFF34F8FFEE751B9036C43B14FF00E
:10439000500383F31188BFF36F8FBFF34F8FFEE796
:1043A00000F01CFE50B9019B43B14FF0500383F362
:1043B0001188BFF36F8FBFF34F8FFEE701F0E2F973
:1043C000A56BDDB131462046013DFFF7EBFDA5634E
:1043D000236973B104F1100000F070FD48B14FF093
:1043E000E0234FF08052C3F8042DBFF34F8FBFF38B
:1043F0006F8F01F0E7F9012005B0F0BD019B1BB9FB
:1044000001F0E0F90020F7E702A800F099FD2F463F
:1044100001F0D8F900F08CFB01F0B4F994F84430C5
:10442000FF2B08BF84F8447094F84530FF2B08BF79
:1044300084F8457001F0C6F901A902A800F08CFDCE
:1044400038BB2046FFF770FDE8B1019904F1240064
:1044500000F0FAFC2046FFF7B9FD00F019FC48B95E
:104460004FF0E0234FF08052C3F8042DBFF34F8F7D
:10447000BFF36F8F01F086F9A56B002DA2D1019BD0
:10448000002BC5D1BCE72046FFF7A0FD00F000FCE3
:10449000F0E72046FFF79AFD00F0FAFB2046FFF711
:1044A00043FD0028E6D0ADE7F0B585B004460191A4
:1044B00040B94FF0500383F31188BFF36F8FBFF300
:1044C0004F8FFEE7056C45B14FF0500383F3118821
:1044D000BFF36F8FBFF34F8FFEE700F07FFD0646FF
:1044E00020B32E46002701F04DF9A36B53B3013BD7
:1044F000A363236813B900F06FFEA060236973B152
:1045000004F1100000F0DAFC48B14FF0E0234FF066
:104510008052C3F8042DBFF34F8FBFF36F8F01F0AC
:1045200051F9012005B0F0BD3546DBE7019B002BBA
:10453000FAD04FF0500383F31188BFF36F8FBFF3AE
:104540004F8FFEE7019B53B9002D66D04FF050030B
:1045500083F31188BFF36F8FBFF34F8FFEE716B958
:1045600002A800F0EDFC01F02DF900F0E1FA01F0F5
:1045700009F994F84430FF2B08BF84F8447094F88C
:104580004530FF2B08BF84F8457001F01BF901A9E5
:1045900002A800F0E1FC50BB2046FFF7C5FC00B3C9
:1045A00023683BB901F0EEF8A06800F027FD05464E
:1045B00001F008F9019904F1240000F045FC2046BF
:1045C000FFF704FD00F064FB48B94FF0E0234FF023
:1045D0008052C3F8042DBFF34F8FBFF36F8F0126B6
:1045E00081E72046FFF7F2FC00F052FBF7E7204698
:1045F000FFF7ECFC00F04CFB2046FFF795FC002891
:10460000EDD065B101F0BEF8616A19B1236B19688C
:10461000C1F10701A06800F089FD01F0D3F8002086
:1046200080E70000002330B5064A52F8335002EB11
:10463000C3041DB942F83310606030BD0133082B4C
:10464000F3D1FAE72402002070B504460D46164661
:1046500001F098F894F84430FF2B04BF002384F84D
:10466000443094F84530FF2B04BF002384F84530D4
:1046700001F0A8F8A36B2BB93246294604F12400B7
:1046800000F0FCFB2046BDE87040FFF79FBC000037
:10469000F8B51A4B1A4D06461C6828680F460430B8
:1046A000FFF732FC40B92A681649D06A01220B682C
:1046B000824023EA02030B60731C07D137B12968DB
:1046C00011480431BDE8F840FFF7FCBB2B68A41982
:1046D0005C6007D30D4B18682968BDE8F8400431C9
:1046E000FFF7FBBB0A4B186829680431FFF7F5FB9D
:1046F000084B1A68A24288BF1C60F8BD88020020DF
:104700008C0300208402002090020020D0020020B0
:10471000D40200206C02002080B5184D184F194EAD
:104720002B6883B9184B1B68012B09D94FF0E02384
:104730004FF08052C3F8042DBFF34F8FBFF36F8F3C
:1047400000F054FFEBE701F01DF8FB68DC68201D6A
:10475000FFF7DAFB3368013B33602B68013B2B60CA
:1047600001F030F804F1580007F0DAFB206B00F09C
:10477000AFFF204600F0ACFFD2E700BFA40200204C
:10478000A80200208C02002000030020064A1368C3
:104790001968064B19B94FF0FF321A60704712685A
:1047A000D268D2685268F8E7D40200206C02002078
:1047B0002DE9F84F9600074630460D469846DDF83D
:1047C0002C9000F083FF824618B94FF0FF30BDE80F
:1047D000F88F4FF4C07000F079FF0446002800F015
:1047E000C5803246C0F830A0A521504607F060FBD6
:1047F000236B043E1E4426F00706002D00F0A8801F
:104800006B1E04F133020F3513F8011F02F8011F6C
:1048100009B1AB42F8D1002384F843300A9D4FF030
:10482000000B062D28BF062504F1040A5046E56258
:10483000E564C4F850B0FFF742FBC5F1070504F189
:104840001800FFF73CFB4FF490725946C4F878B15A
:104850002461A561646284F87CB104F1580007F01A
:1048600027FB444B394603F16802E365D0332266E7
:10487000636601220023C4E93C233F4A3F4B304694
:10488000C4E93E233E4B4246C4F800310B23A4F852
:10489000043100F04FFF2060B9F1000F01D0C9F8DA
:1048A000004000F06FFF374B374F1A68374E013228
:1048B0001A603D68002D4ED13C601B68012B1FD152
:1048C000B04640460135FFF7EFFA072D08F114080E
:1048D000F7D1DFF8BC802F4D4046FFF7E5FA2846B8
:1048E000FFF7E2FA2C48FFF7DFFA2C48FFF7DCFA73
:1048F0002B48FFF7D9FA2B4BC3F800802A4B1D60D9
:104900002A4A2B4913680868013313606364012342
:10491000E26A9340034314200B6000FB026051469F
:10492000FFF7D0FA00F04EFF224B1B6873B13B68D3
:10493000DA6AE36A9A4209D24FF0E0234FF08052DC
:10494000C3F8042DBFF34F8FBFF36F8F01203EE7F5
:1049500084F8345062E7174B1A68E36A002ACFD113
:104960003A68D26A9A4298BF3C60C9E7504600F064
:10497000AFFE2AE70C0D00200E33CDAB34126DE6EE
:10498000ECDE05008C0200208C03002000030020D8
:10499000EC020020D8020020BC020020A802002067
:1049A00090020020D4020020D002002070020020DB
:1049B000840200208002002070B504462D4D00F0D6
:1049C000E1FE04B92C68261D3046FFF79DFA60B958
:1049D0001423E06A284A4343D35833B901222749B4
:1049E00082400B6823EA02030B60A36A1BB104F147
:1049F0001800FFF789FA224A1368013313602B6805
:104A0000A3421BD131461F48FFF75CFA1E4A1368C8
:104A10000133136000F0D6FE1C4B1B684BB32B68B0
:104A2000A34226D11A4B1B68CBB14FF0500383F33E
:104A30001188BFF36F8FBFF34F8FFEE7154A04F164
:104A400058001368013B136007F06AFA206B00F00E
:104A50003FFE204600F03CFEFFF798FEDAE74FF0FD
:104A6000E0234FF08052C3F8042DBFF34F8FBFF304
:104A70006F8F70BD8C030020000300208402002093
:104A800070020020A8020020A40200208002002062
:104A9000640200208C02002013B500241B4B1C4A2A
:104AA00001931C4923461C480094C2F3CF02FFF730
:104AB0007FFE01281DD100F0E5FB012819D14FF040
:104AC000500383F31188BFF36F8FBFF34F8F134BE6
:104AD000134A1B68583313604FF0FF32114B1A60B2
:104AE000114B1860114B1C6002B0BDE8104000F083
:104AF000C9BE013008D14FF0500383F31188BFF3D2
:104B00006F8FBFF34F8FFEE702B010BD6802002029
:104B10000004000068C60008194700088C03002044
:104B2000380000206C020020800200208802002053
:104B3000024A136801331360704700BF640200200B
:104B4000014B1868704700BF88020020454B2DE9D3
:104B5000F74F1B68002B7BD1434B1C6801341C6052
:104B6000BCB9424B1A68126842B14FF0500383F34C
:104B70001188BFF36F8FBFF34F8FFEE73C4A196870
:104B80001068186011603B4A136801331360FFF727
:104B9000FDFD394D4FF0000B2B68384E9C42384FCD
:104BA00017D214213A68D26A4A43B258022A354AC7
:104BB00028BF4FF0010B12680AB900F02EFD324AEF
:104BC0001268002A18BF4FF0010B584603B0BDE829
:104BD000F08FDFF898A0DFF8B490DAF800201268C0
:104BE0001AB94FF0FF322A60DBE7DAF80020D2680A
:104BF000D2F80C80D8F804108C4201D22960D0E79A
:104C000008F1040318460193FFF77EF9D8F828103D
:104C100019B108F11800FFF777F901224FF0140CD1
:104C2000D8F82C00D9F8003002FA00F119430CFB37
:104C30000060C9F8001008F10401FFF743F9386873
:104C4000D8F82C10C26A914228BF4FF0010BC4E77C
:104C50000C4A4FF0000B13680133136000F0DDFCC9
:104C6000B3E700BF6402002088020020D4020020C5
:104C7000D0020020740200206C02002000030020FB
:104C80008C0300207C020020780200208402002097
:104C90002DE9F843314C236843B94FF0500383F3B7
:104CA0001188BFF36F8FBFF34F8FFEE700F06AFDEF
:104CB0002368013B236024682CB1002400F082FDAE
:104CC0002046BDE8F883264B1B68002BF5D0254D08
:104CD000254EDFF898801FE0EB680127DC6804F1BF
:104CE000040904F11800FFF70FF94846FFF70CF923
:104CF0001420E26A316807FA02F30B4300FB0280DA
:104D000049463360FFF7DEF8194BE26A1B68DB6A3D
:104D10009A4201D3174B1F602B68002BDCD10CB1DA
:104D2000FFF734FD144D2C6844B10127114EFFF7F5
:104D30000DFF00B13760013CF9D12C600D4B1B68B1
:104D4000002BBAD04FF0E0234FF08052C3F8042D6F
:104D5000BFF34F8FBFF36F8F0124AFE764020020D2
:104D60008C020020BC0200208402002000030020EE
:104D70008C030020780200207C02002008B550B986
:104D80004FF0E0234FF08052C3F8042DBFF34F8F54
:104D9000BFF36F8F08BD0A4B196841B14FF0500344
:104DA00083F31188BFF36F8FBFF34F8FFEE7FFF7D9
:104DB000BFFEFFF76DFCFFF76BFF0028E0D0E9E7CF
:104DC000640200201A4B10B51A681A4B12B1012266
:104DD0001A6010BD1A60184B1A68B2FA82F21423D6
:104DE000D2B2C2F11F0253431449CC58C81844B977
:104DF0004FF0500383F31188BFF36F8FBFF34F8FD2
:104E0000FEE74468083364680B449C4208BF63684B
:104E1000446008BF4360142303FB02114B68DA6847
:104E2000074B1A601B68074A58331360D1E700BF6D
:104E30006402002078020020840200200003002089
:104E40008C0300203800002010B50C4640B94FF00C
:104E5000500383F31188BFF36F8FBFF34F8FFEE7CB
:104E6000054B19681831FFF738F82046BDE81040A7
:104E70000121FFF70DBC00BF8C03002038B50D46A3
:104E8000144640B94FF0500383F31188BFF36F8F7E
:104E9000BFF34F8FFEE7084B19681831FFF712F880
:104EA000002C214608BF2846BDE8384018BF4FF007
:104EB000FF30FFF7EDBB00BF8C03002038B5C3689F
:104EC000DC6844B94FF0500383F31188BFF36F8F50
:104ED000BFF34F8FFEE704F118052846FFF714F8DB
:104EE000114B1B68E3B9251D2846FFF70DF8012378
:104EF0000E49E26A08689340034314200B60294678
:104F00000B4B00FB0230FEF7DDFF0A4BE26A1B6829
:104F1000DB6A9A4285BF0120074B0020186038BD2C
:104F200029460648EFE700BF640200208402002003
:104F3000000300208C03002078020020BC02002027
:104F4000034B1B680360034B1B684360704700BF43
:104F5000740200208802002070B50C46054640B956
:104F60004FF0500383F31188BFF36F8FBFF34F8F60
:104F7000FEE741B94FF0500383F31188BFF36F8F01
:104F8000BFF34F8FFEE700F0FDFB0F4B196823685E
:104F90005A1C10D00D482E6800686A68864201D0FD
:104FA0008A420FD9881A83420AD95B1A13442846C9
:104FB0002360FFF7C5FF002400F004FC204670BD0D
:104FC000002323600124F7E78802002074020020F8
:104FD0000122014B1A60704778020020054B1B68C4
:104FE00033B1054B1868B0FA80F0400940007047B3
:104FF000012070478002002064020020F8B50446BA
:10500000002830D01E4DC36A2A68D26A93422FD23C
:1050100082691C4E002AA1BF2A68D26AC2F1070227
:105020008261142202FB036342699A421CD1071D6C
:105030003846FEF769FF144A30B90121E06A136867
:10504000814023EA010313602B681168D86A0123A9
:1050500083400B4313601423E062394603FB006076
:10506000FEF730FF0120F8BD2B68DB6AC362F9E769
:105070002B68C06CDB6A98422CBF00200120F2E74D
:105080008C0300200003002084020020F8B50446B1
:1050900008B90020F8BD224B1B68834208D04FF0AE
:1050A000500383F31188BFF36F8FBFF34F8FFEE779
:1050B0001B6D43B94FF0500383F31188BFF36F8F1B
:1050C000BFF34F8FFEE7C16AC26C013B914203659B
:1050D000DFD0002BDDD1061D3046FEF715FF114F46
:1050E000114A50B91423E16A4B43FB582BB90125EF
:1050F00013688D4023EA05031360E36C1420C3F1A9
:105100000701A161E3620124116804FA03F500FBC1
:1051100003700D4331461560FEF7D4FE2046B9E713
:105120008C030020000300208402002070B5044698
:10513000002849D0026D42B94FF0500383F3118823
:10514000BFF36F8FBFF34F8FFEE7C36C994238BF39
:105150001946C36A8B4237D0012A35D11B4A1268DF
:10516000824208D14FF0500383F31188BFF36F8F51
:10517000BFF34F8FFEE78269154D002A4FF01402EE
:1051800002FB03534269C162A4BFC1F107018161FF
:105190009A4219D1061D3046FEF7B6FEE46A0D4A62
:1051A00028B901201368A04023EA000313600123FB
:1051B00014201168A3400B4300FB04503146BDE8A6
:1051C00070401360FEF77EBE70BD00BF8C030020F0
:1051D0000003002084020020044B1A681AB11968E9
:1051E0000A6D01320A651868704700BF8C03002001
:1051F000914208B5416000610AD8D21A83699A4287
:105200000DD2084B011D1868FEF767FE002008BD8F
:105210009A4201D2994202D2034B011DF3E70120C9
:10522000F5E700BF9C030020A0030020F8B50F4C59
:1052300000F0A8FA2568ADB90D4F0E4E3846FEF7BE
:1052400033FE3046FEF730FE0B4B2A461F600B4BF9
:105250000C210A201E60FEF730FF206010B10849C3
:10526000FFF7E0F9BDE8F84000F0ACBA9803002081
:10527000B8030020A4030020A00300209C0300200A
:105280006DC6000807B5FFF7D1FF0F4B1B6843B988
:105290004FF0500383F31188BFF36F8FBFF34F8F2D
:1052A000FEE70A4B0A4A01930223D20852000093F8
:1052B00008490023084892B2FFF77AFA0028E7D09D
:1052C00003B05DF804FB00BF9803002094030020A6
:1052D0000004000072C60008D55300087FB51646CA
:1052E00004461A4640B94FF0500383F31188BFF3C8
:1052F0006F8FBFF34F8FFEE70C4D286878B10529FB
:10530000CDE9011603940CDCFFF768FE00230228A8
:1053100014BF1A46089A286801A9FEF7F2FE04B0E5
:1053200070BD002301A9FEF7C3FFF8E79803002032
:105330002DE9F3470646FFF703FCDFF88C800546AE
:10534000D8F80030834209D9204F3B681A686AB9FF
:105350001F4A116813603960012300E000232846CA
:105360003360C8F8005002B0BDE8F087DB68DC6845
:10537000D3F8009004F1040A5046FEF7C5FD236AF5
:105380002046984794F828305B07DED5A3694B4444
:10539000994506D25146386863602461FEF79DFD49
:1053A000D3E700234A46194620460093FFF796FFAD
:1053B0000028CAD14FF0500383F31188BFF36F8FD9
:1053C000BFF34F8FFEE700BF90030020A003002033
:1053D0009C0300202DE9F043694D6A4E87B02B688D
:1053E000D3F80080B8F1000F35D00024DB68D3F883
:1053F0000080FFF79DFB03A8FFF79AFF039B814600
:10540000002B6AD1002C4DD1404551D3FFF740FC11
:105410002B68DB68DF68381DFEF776FD97F82830CB
:1054200058071AD5B96943464A4638464144FFF7FA
:10543000DFFEB0B123464246214638460094FFF7CE
:105440004DFF70B94FF0500383F31188BFF36F8F96
:10545000BFF34F8FFEE70124CBE723F0010387F86A
:10546000283038463B6A98470022306803A9FEF787
:105470007CFF0028B3D0039B002BF5DB059C636900
:1054800013B1201DFEF740FD02A8FFF751FF039B5B
:105490000246092BE8D8DFE803F02323234C536BA3
:1054A00023234C53384B1B681C68B4FA84F46409FA
:1054B00022463068A8EB0901FFF7C6F8FFF7E8FBC2
:1054C0000028D1D14FF0E0234FF08052C3F8042DD3
:1054D000BFF34F8FBFF36F8FC6E7FFF7D9FBC3E76B
:1054E00094F82830A16943F0010384F82830049B24
:1054F00020461944FFF77CFE0028B5D0236A2046D9
:10550000984794F828305907AED50023A26904992A
:1055100020460A4400931946FFF7E0FE0028A3D175
:105520004FF0500383F31188BFF36F8FBFF34F8F9A
:10553000FEE794F8283023F0010384F8283093E73D
:1055400094F8283043F0010384F828300499A161CD
:1055500041B94FF0500383F31188BFF36F8FBFF34E
:105560004F8FFEE7034601442046FFF741FE7BE7ED
:1055700094F828309A07DED4204600F0A9F873E7A3
:10558000A0030020980300209C03002041F658321D
:10559000054B1B68B3FBF2F3002243439A4200D150
:1055A000704700BF0132F9E72400002038B50446F7
:1055B00072B60121252004F02DF8002501212520B7
:1055C00004F086F84FF49670FFF7E0FF00212520E5
:1055D00004F07EF801354FF49670FFF7D7FFAC4228
:1055E000ECD14FF4FA60FFF7D1FFE6E700F092BA92
:1055F000042008B5FFF7DAFF08B5FFF7F9FF05202B
:1056000008B5FFF7D3FF08B5FFF7F9FF062008B587
:10561000FFF7CCFF08B5FFF7F9FF704708B5FFF7B4
:10562000DDFC012803D0BDE8084000F003B908BD47
:10563000F8B50C46174907460B684BB9164A174B85
:105640009B1A174A22F003029B1A164A0B6013603A
:10565000FFF7C4FC01280FBF6D46114B0F4D23F01F
:10566000030318BFED1AFFF763FA0F4B1E683219D8
:10567000AA4207D90C233B60FFF70AFB4FF0FF3625
:105680003046F8BD1A60074A13681B1B1360FFF70A
:10569000FFFAF5E7CC030020480E00200050002060
:1056A00000040000D003002028000020EFF3058351
:1056B0000BB9FFF73DBA4FF0500383F31188BFF3E6
:1056C0006F8FBFF34F8FFEE7FFF7E2BA06F008BB1C
:1056D00006F00EBB06480068006880F3088862B6D2
:1056E00061B6BFF34F8FBFF36F8F00DF00BF0000C5
:1056F00008ED00E0002382B001930D4B1B680133DD
:1057000008D04FF0500383F31188BFF36F8FBFF3BE
:105710004F8FFEE74FF0500383F31188BFF36F8F75
:10572000BFF34F8F019B002BFCD002B0704700BF2E
:105730002C0000204FF0807340F8043C054B21F012
:10574000010140F8081C40F80C3C40F8202C40387F
:10575000704700BFF5560008000000000000000080
:10576000074B19680868B0E8F00F80F30988BFF3A9
:105770006F8F4FF0000080F311884EF00D0E7047D0
:105780008C0300204FF0500383F31188BFF36F8F19
:10579000BFF34F8F0A4A13680133012B13600ED1F8
:1057A0004FF0E023D3F8043DDBB243B14FF0500398
:1057B00083F31188BFF36F8FBFF34F8FFEE77047FE
:1057C0002C000020084A136843B94FF0500383F3BC
:1057D0001188BFF36F8FBFF34F8FFEE7013B13605C
:1057E0000BB983F3118870472C00002000000000E3
:1057F000EFF30980BFF36F8F0D4B1A6820E9F00FAC
:1058000010602DE908404FF0500080F31188FFF739
:10581000D9FA4FF0000080F31188BDE808401968FC
:105820000868B0E8F00F80F30988BFF36F8F704706
:105830008C03002008B54FF0500383F31188BFF3A9
:105840006F8FBFF34F8FFFF781F928B14FF0E0233F
:105850004FF08052C3F8042D002383F3118808BD54
:105860004FF0E02200234FF47A7113619361044BEF
:105870001B68B3FBF1F3013B5361072313617047CE
:105880002400002013B5274B1A78D2B20192FF22D0
:105890001A701B78244ADBB28DF803309DF8033070
:1058A00003F0500313700723204A13609DF8031080
:1058B000136809060AD4032B11D04FF0500383F369
:1058C0001188BFF36F8FBFF34F8FFEE7013B13606B
:1058D0009DF803305B00DBB28DF80330E6E74FF450
:1058E00040731360019B0F4ADBB213704FF0E0234B
:1058F0000024D3F8202D42F46002C3F8202DD3F801
:10590000202D42F06042C3F8202DFFF7A9FF084B7D
:105910001C60FFF7DFFEFFF755FA2046FFF7EAFEAF
:1059200002B010BD00E400E0D8030020D403002042
:105930002C000020EFF305830F2B0ED9114A9B5C3E
:10594000114A12789A4208D94FF0500383F3118814
:10595000BFF36F8FBFF34F8FFEE74FF0E0230B4A8B
:10596000D3F80C3D126803F4E063934208D94FF07A
:10597000500383F31188BFF36F8FBFF34F8FFEE7A0
:10598000704700BFF0E300E0D8030020D4030020FC
:10599000BFF34F8F0549064BCA6802F4E062134318
:1059A000CB60BFF34F8F00BFFDE700BF00ED00E00D
:1059B0000400FA0510B50446052103F02BFE20462D
:1059C000BDE81040012103F083BE01F51C414131C7
:1059D00001F0C0BD38B5314C314D20460021314A6F
:1059E000FFF7F3FF20466A780121FFF7EEFF2E4B09
:1059F00020461A780221FFF7E8FF20462A8B04216F
:105A0000FFF7E3FF20466A890521FFF7DEFF204606
:105A1000AA890621FFF7D9FF2046EA890721FFF767
:105A2000D4FFEA8A204652BA082192B2FFF7CDFF8E
:105A3000AA8A204652BA092192B2FFF7C6FF204631
:105A40006A8B1821FFF7C1FF2046AA8B1921FFF7A7
:105A5000BCFF2046EA8B1A21FFF7B7FF20462A8CAD
:105A60001B21FFF7B2FF20462A8D1C21FFF7ADFF57
:105A70002046EA8C1D21FFF7A8FF2046AA8D1E2193
:105A8000FFF7A3FF20466A8C1F21FFF79EFF2046E9
:105A9000AA8C2021BDE83840FFF797BF30040020D2
:105AA00094050020FCF90300910500204FF4A17338
:105AB00013B503804FF4E133436003230381114B9B
:105AC00004461A689B88C0F80A20A822C381C02116
:105AD00000920123103003F029FB0B4A0B4B2046A8
