:020000040800F2
:1000000000500020A107000801080008553E000824
:1000100001080008633E0008713E0008000000006F
:10002000000000000000000000000000C13F0008C8
:100030000108000800000000514000086D1D000884
:10004000010800080108000801080008010800086C
:1000500001080008010800085D1E0008631E000872
:10006000691E00086F1E0008751E000801080008C0
:10007000010800080108000801080008010800083C
:10008000010800080108000801080008010800082C
:100090000108000801080008010800087B1E00088C
:1000A000010800085D1B000801080008711B00081A
:1000B000751B0008891B00089D1B0008010800082B
:1000C00001080008010800080108000801080008EC
:1000D00001080008A1290008B9290008D52900084D
:1000E000911E000801080008010800080000000037
:1000F0000000000000000000000000000000000000
:0C01000000000000000000005FF808F1A3
:1001100080F0004002E000BF81F0004142001FBFBC
:100120005FEA410392EA030F7FEA226C7FEA236CC5
:100130006AD04FEA1262D2EB1363C1BFD2184140BA
:1001400048404140B8BF5B42192B88BF704710F050
:10015000004F40F4000020F07F4018BF404211F0F3
:10016000004F41F4000121F07F4118BF494292EA5B
:10017000030F3FD0A2F1010241FA03FC10EB0C0087
:10018000C3F1200301FA03F100F0004302D5494214
:1001900060EB4000B0F5000F13D3B0F1807F06D3C1
:1001A00040084FEA310102F10102FE2A51D2B1F1B9
:1001B000004F40EBC25008BF20F0010040EA0300AE
:1001C0007047490040EB0000013A28BFB0F5000F2E
:1001D000EDD2B0FA80FCACF1080CB2EB0C0200FAE4
:1001E0000CF0AABF00EBC25052421843BCBFD04033
:1001F0001843704792F0000F81F4000106BF80F4AD
:1002000000000132013BB5E74FEA41037FEA226C6F
:1002100018BF7FEA236C21D092EA030F04D092F03A
:10022000000F08BF0846704790EA010F1CBF00206E
:10023000704712F07F4F04D1400028BF40F00040CB
:10024000704712F100723CBF00F50000704700F0EB
:10025000004343F0FE4040F4000070477FEA226212
:1002600016BF08467FEA23630146420206BF5FEAE3
:10027000412390EA010F40F4800070474FF00003E3
:1002800004E000BF10F0004348BF40425FEA000CAA
:1002900008BF704743F0964301464FF000001CE052
:1002A00050EA010208BF70474FF000030AE000BFA8
:1002B00050EA010208BF704711F0004302D54042E6
:1002C00061EB41015FEA010C02BF84460146002058
:1002D00043F0B64308BFA3F18053A3F50003BCFA73
:1002E0008CF2083AA3EBC25310DB01FA02FC634420
:1002F00000FA02FCC2F12002BCF1004F20FA02F227
:1003000043EB020008BF20F00100704702F1200219
:1003100001FA02FCC2F1200250EA4C0021FA02F27A
:1003200043EB020008BF20EADC7070474FF0FF0C7F
:100330001CEAD0521EBF1CEAD15392EA0C0F93EA7A
:100340000C0F6FD01A4480EA010C400218BF5FEA1C
:1003500041211ED04FF0006343EA501043EA51118F
:10036000A0FB01310CF00040B1F5000F3EBF490089
:1003700041EAD3715B0040EA010062F17F02FD2A8D
:100380001DD8B3F1004F40EBC25008BF20F0010070
:10039000704790F0000F0CF0004C08BF49024CEA87
:1003A000502040EA51207F3AC2BFD2F1FF0340EA19
:1003B000C250704740F400004FF00003013A5DDC8A
:1003C00012F1190FDCBF00F000407047C2F10002CB
:1003D000410021FA02F1C2F1200200FA02FC5FEAB8
:1003E000310040F1000053EA4C0308BF20EADC7002
:1003F000704792F0000F00F0004C02BF400010F474
:10040000000F013AF9D040EA0C0093F0000F01F020
:10041000004C02BF490011F4000F013BF9D041EA42
:100420000C018FE70CEAD15392EA0C0F18BF93EA44
:100430000C0F0AD030F0004C18BF31F0004CD8D16E
:1004400080EA010000F00040704790F0000F17BFF5
:1004500090F0004F084691F0000F91F0004F14D03B
:1004600092EA0C0F01D142020FD193EA0C0F03D193
:100470004B0218BF084608D180EA010000F0004096
:1004800040F0FE4040F40000704740F0FE4040F471
:10049000400070474FF0FF0C1CEAD0521EBF1CEA10
:1004A000D15392EA0C0F93EA0C0F69D0A2EB03022E
:1004B00080EA010C49024FEA402037D04FF08053C8
:1004C00043EA111143EA10130CF000408B4238BF8D
:1004D0005B0042F17D024FF4000C8B4224BF5B1A9B
:1004E00040EA0C00B3EB510F24BFA3EB510340EAE9
:1004F0005C00B3EB910F24BFA3EB910340EA9C0097
:10050000B3EBD10F24BFA3EBD10340EADC001B0106
:1005100018BF5FEA1C1CE0D1FD2A3FF650AF8B42AA
:1005200040EBC25008BF20F0010070470CF0004CB7
:100530004CEA50207F32C2BFD2F1FF0340EAC250E2
:10054000704740F400004FF00003013A37E792F0A3
:10055000000F00F0004C02BF400010F4000F013A01
:10056000F9D040EA0C0093F0000F01F0004C02BFFC
:10057000490011F4000F013BF9D041EA0C0195E765
:100580000CEAD15392EA0C0F08D142027FF47DAFFE
:1005900093EA0C0F7FF470AF084676E793EA0C0FEE
:1005A00004D14B023FF44CAF08466EE730F0004CEC
:1005B00018BF31F0004CCAD130F000427FF45CAF7C
:1005C00031F000437FF43CAF5FE700BF4FF0FF3CEA
:1005D00006E000BF4FF0010C02E000BF4FF0010C3D
:1005E0004DF804CD4FEA40024FEA41037FEA226C06
:1005F00018BF7FEA236C11D001B052EA530C18BF28
:1006000090EA010F58BFB2EB030088BFC81738BF8C
:100610006FEAE17018BF40F0010070477FEA226C7A
:1006200002D15FEA402C05D17FEA236CE4D15FEA76
:10063000412CE1D05DF8040B704700BF84460846AA
:100640006146FFE70FB5FFF7C9FF002848BF10F16B
:10065000000F0FBD4DF808EDFFF7F4FF0CBF0120B0
:1006600000205DF808FB00BF4DF808EDFFF7EAFF3A
:1006700034BF012000205DF808FB00BF4DF808EDF5
:10068000FFF7E0FF94BF012000205DF808FB00BFEA
:100690004DF808EDFFF7D2FF94BF012000205DF870
:1006A00008FB00BF4DF808EDFFF7C8FF34BF01207D
:1006B00000205DF808FB00BF42000ED2B2F1FE4FF1
:1006C0000BD34FF09E03B3EB126209D44FEA002321
:1006D00043F0004323FA02F070474FF000007047E8
:1006E00012F1610F01D1420202D14FF0FF30704789
:1006F0004FF00000704700BF034613F8012B002A9B
:10070000FBD1181A0138704710B5054C237833B95E
:10071000044B13B10448AFF300800123237010BDD4
:100720008800002000000000208E000808B5034B60
:100730001BB103490348AFF3008008BD000000006F
:100740008C000020208E000810B590B014220021EB
:1007500008A808F039FA1422002101A808F034FA98
:1007600002244FF480330122CDE90D43CDE9062365
:100770004FF4E01306A80F9300F0BEFA00B1FEE7B5
:100780000F23CDE901344FF480630390CDE90430A9
:10079000214601A800F086FC00B1FEE710B010BDB4
:1007A0001148854672B6BFF34F8FBFF36F8F71B696
:1007B000002103E00D4B5B58435004310C480D4BB6
:1007C00042189A42F6D30C4A02E0002342F8043B56
:1007D0000A4B9A42F9D301F019FE62B661B608F0ED
:1007E00095FA05F023FD704700500020C8970008D7
:1007F0000000002084000020880000203C0D002024
:10080000FEE700BE7047000038B50E4B05461A786B
:100810004FF47A73B3FBF2F30B4A1068B0FBF3F0BA
:1008200000F09CF8044658B90F2D09D80246294615
:100830004FF0FF3000F042F82046044B1D6038BDF9
:100840000120FCE70000002024000020040000201C
:10085000074A08B51368032043F01003136000F043
:100860001BF80020FFF7D0FFFFF7CCFF002008BDEA
:1008700000200240034A044B11681B780B441360AC
:10088000704700BFA400002000000020014B186842
:10089000704700BFA400002007490302CA6803F4A0
:1008A000E06322F4E0621204120C134343F0BF63CE
:1008B00043F40033CB60704700ED00E0154B30B5DA
:1008C000DC68C4F30224C4F10703251D042B28BFF0
:1008D0000423062D4FF0FF3594BF0024033C05FA96
:1008E00003F321EA0303A54022EA0502A3400028FE
:1008F00043EA0203ACBF00F16040074A4FEA03132A
:10090000DBB2ABBF00F5614000F00F0080F80033B0
:10091000135430BD00ED00E014ED00E0002807DBCB
:1009200001234109034A00F01F00834042F82130AF
:10093000704700BF00E100E000280CDB01220649FF
:10094000430900F01F008240203341F82320BFF309
:100950004F8FBFF36F8F704700E100E00138B0F1B7
:10096000807F0BD24FF0E023F021054A586182F8D6
:1009700023100020072298611A61704701207047F8
:1009800000ED00E0002808DB01224309034900F0E4
:100990001F008240603341F82320704700E100E0EF
:1009A000704708B5FFF7FCFF08BD704710B5044657
:1009B00050B1437903F0FF0213B90271FFF7F5FF5D
:1009C00001230020637110BD0120FCE790F8212075
:1009D0000346022A06D0042282630120002283F803
:1009E000202070470268C06B116821F00E01116071
:1009F000116821F00101116001211A6C01FA02F263
:100A00004260002083F82110E8E7000008B590F864
:100A10002130022B03D004238363012008BD036827
:100A20001A6822F00E021A601A6822F001021A6097
:100A3000164A93421CD0143293421BD01432934274
:100A40001AD0143293421AD0143293421AD014326C
:100A5000934214BF4FF080734FF480130C4A5360DD
:100A60004FF480730384436B03B198470020D5E7AC
:100A70000123F3E71023F1E74FF48073EEE74FF41F
:100A80008053EBE74FF48033E8E700BF08000240F3
:100A900000000240114AD36813F0100305D010493A
:100AA000CB6943F00203CB611023D268500706D50F
:100AB0000B4943F00403CA6942F00102CA61074AC4
:100AC000D169C90708D50648C16941F00401C1616F
:100AD000D16921F00101D161D3607047002002404B
:100AE000A8000020064B186910F0800007D0054AC6
:100AF0005A6002F188325A601869C0F3C01070471A
:100B00000020024023016745034A0020136943F097
:100B100080031361704700BF0020024070B5054696
:100B2000FFF7B4FE0646114CE368D80712D4E36819
:100B3000990644BF2023E360E368DA0606D4E3693C
:100B4000DB0703D4E06810F0040007D0FFF7A2FF32
:100B5000012003E06B1CE7D00DB9032070BDFFF747
:100B600095FE801BA842DFD9F7E700BF00200240B6
:100B70002DE9F84FDFF894A01F469AF81830054683
:100B8000012B884691463FD001234CF250308AF821
:100B90001830FFF7C3FF90BB012D03D0022D14BF07
:100BA0000425022500263346DFF864B03401C4F181
:100BB0002001A4F1200207FA01F129FA04F4CAF88D
:100BC0001C300C4327FA02F21443DBF81020A4B2C5
:100BD00042F00102CBF810204CF2503028F81640B9
:100BE000FFF79CFFDBF8102022F00102CBF8102069
:100BF00028B90136F2B295424FF00003D6D800234F
:100C00008AF81830BDE8F88F0220FBE7A800002022
:100C1000002002400022064BDA61064B1A6942F0BE
:100C200002021A6158611A6942F040021A61704763
:100C3000A8000020002002402DE9F041264F054683
:100C40003B7E8846012B44D001243C7603684CF25D
:100C50005030022B1AD1FFF761FF20B10120002391
:100C60003B76BDE8F0811D4CF86123694CF25030B1
:100C700043F004032361236943F040032361FFF73A
:100C80004DFF236923F004032361E8E7FFF746FFE4
:100C90000028E3D14FF0FF33C8F800302046AE689B
:100CA0000E4CD5E9023203EB8223B342D7D930464A
:100CB000FFF7B0FF4CF25030FFF730FF236923F00D
:100CC0000203236110B1C8F80060C8E706F580662A
:100CD000E7E70220C5E700BFA8000020002002408F
:100CE000044A08B55169014202D0506101F0A0F8F0
:100CF00008BD00BF000401402DE9F341054638B3AB
:100D00000368DB0710D42B689F075ED42B68190794
:100D100000F195802B685A0700F1C180EB69002B28
:100D200040F02C81002029E0904C636803F00C0314
:100D3000042B07D0636803F00C03082B0AD1636807
:100D4000DE0307D523689C03DDD56B68002BDAD161
:100D5000012013E06B68B3F5803F12D1236843F4A0
:100D600080332360FFF792FD064623689803CAD4B8
:100D7000FFF78CFD801B6428F7D9032002B0BDE883
:100D8000F0819BB9236823F480332360236823F424
:100D900080232360FFF77AFD064623689903B2D5C6
:100DA000FFF774FD801B6428F7D9E6E7B3F5A02FA1
:100DB000236803D143F480232360CFE723F48033F7
:100DC0002360236823F48023CBE7684C636813F027
:100DD0000C0F07D0636803F00C03082B10D1636875
:100DE000DA030DD423689B0702D52B69012BAFD101
:100DF00023686A6923F0F80343EAC203236085E7A6
:100E00002A695B4B6AB101221A60FFF73FFD064673
:100E100023689F07ECD4FFF739FD801B0228F7D920
:100E2000ABE71A60FFF732FD0646236898077FF5A7
:100E30006DAFFFF72BFD801B0228F6D99DE7AA694D
:100E40004A4E4B4BE2B10122C3F88024FFF71EFD4E
:100E50000446736A9B070DD54FF4FA52454B1B6845
:100E6000B3FBF2F3019300BF019B5A1E0192002BCA
:100E7000F9D14FE7FFF70AFD001B0228E9D97CE70B
:100E8000C3F88024FFF702FD0446736A9F077FF5CD
:100E900041AFFFF7FBFC001B0228F6D96DE7334C8E
:100EA000E369D80024D40127E36943F08053E36168
:100EB000E36903F080530093009B2F4E3368D905FC
:100EC00018D5EB68012B26D1236A43F00103236276
:100ED000FFF7DCFC41F288380646236A9B073FD5C2
:100EE000002F3FF41BAFE36923F08053E36115E764
:100EF0000027E2E7336843F480733360FFF7C6FCF2
:100F000080463368DA05DCD4FFF7C0FCA0EB0800AC
:100F10006428F6D931E7ABB9236A41F2883823F067
:100F200001032362236A23F004032362FFF7AEFC6C
:100F30000646236A9807D3D5FFF7A8FC801B4045D7
:100F4000F7D91AE7052B236A03D143F00403236280
:100F5000BAE723F001032362236A23F00403B6E710
:100F6000FFF794FC801B4045B7D906E7001002400C
:100F70000000424224000020007000402A4C6268B9
:100F800002F00C02082A3ED00022022B274B1A66E0
:100F90002CD1FFF77BFC06462368990120D42B6AED
:100FA000B3F5803F05D16268A96822F400320A4394
:100FB0006260696A62680B4322F47412134301226F
:100FC00063601A4B1A66FFF761FC054623689A01B5
:100FD0003FF5A8AEFFF75AFC401B0228F6D9CCE635
:100FE000FFF754FC801B0228D6D9C6E6FFF74EFC5B
:100FF000054623689B017FF595AEFFF747FC401B34
:101000000228F6D9B9E6012B3FF4A2AE60682B6A3C
:1010100000F480329A427FF49BAE6B6A00F4701049
:10102000C01A18BF0120A9E6001002400000424289
:1010300030B5184B87B002AC03F110052246186892
:101040005968083303C2AB421446F7D140F201237A
:101050001149ADF804304B6803F00C02082A17D18F
:10106000C3F3834218326A44DB0312F8100C0CD528
:101070004B680A4AC3F34043504318336B4413F898
:10108000143CB0FBF3F007B030BD054B5843FAE712
:101090000248F8E7E49200080010024000127A00CB
:1010A00000093D002DE9F0410D46044610B901202C
:1010B000BDE8F081444A136803F007038B4228D34C
:1010C00021688E0730D4CA0743D43F4A136803F01F
:1010D0000703AB4265D822683C4D12F0040F6CD177
:1010E000130706D56B68226923F4605343EAC203F1
:1010F0006B60FFF79DFF6B68354AC3F30313D35C46
:10110000D840344B1860344B1868FFF77DFB002043
:10111000CEE7136823F007030B431360136803F053
:1011200007038B42C3D1CBE7284B11F0040F1EBF3E
:101130005A6842F4E0625A60080742BF5A6842F4B3
:1011400060525A605A68A06822F0F00202435A6066
:10115000B9E762681D4E012A33681AD113F4003FC3
:10116000A5D0736841F2883823F0030313437360FA
:10117000FFF78CFB07467368626803F00C03B3EB60
:10118000820FA2D0FFF782FBC01B4045F3D903209A
:101190008EE7022A02D113F0007FE1E713F0020F7D
:1011A000DEE7136823F007032B431360136803F093
:1011B0000703AB427FF47BAF8DE76B68E16823F4F4
:1011C000E0630B436B608BE700200240001002409D
:1011D000409300082400002004000020044B054A2E
:1011E0005B68C3F30223D35C034A1068D84070479E
:1011F000001002403893000824000020044B054AE8
:101200005B68C3F3C223D35C034A1068D8407047BD
:10121000001002403893000824000020704710B5E9
:101220000446002851D0436A002B4AD14268B2F5E7
:10123000827F00D0C3610023A36294F8513003F091
:10124000FF0223B9204684F85020FFF7E7FF02236E
:10125000226884F851301368A06823F040031360BB
:10126000636800F4044003F482730343E068A169F7
:1012700000F400600343206900F00200034360694A
:1012800000F00100034301F400700343E069090C1E
:1012900000F038000343206A01F0040100F08000F0
:1012A0000343A06A00F40050034313605160D36904
:1012B000002023F40063D3610123606584F851307A
:1012C00010BD0023C0E90433B5E70120F8E77047FB
:1012D0007047036810B51A69044691070ED5DA689D
:1012E00092070BD56FF002021A61012202779B6907
:1012F0009B0777D000F0AFFC0023237723681A699F
:10130000500710D5DA6851070DD56FF004021A6145
:10131000022222779B69204613F4407F68D000F0B8
:101320009AFC0023237723681A6912070FD5DA681D
:1013300010070CD56FF008021A6104222277DB69CE
:10134000204699075AD000F086FC002323772368B3
:101350001A69D20610D5DA68D0060DD56FF01002E2
:101360001A6108222277DB69204613F4407F4BD0B4
:1013700000F071FC0023237723681A69D10708D590
:10138000DA68D20705D56FF0010220461A6100F035
:101390003FFC23681A69100608D5DA68110605D5DE
:1013A0006FF0800220461A6100F08DF823681A69F8
:1013B000520608D5DA68500605D56FF0400220467F
:1013C0001A61FFF785FF23681A69910622D5DA684A
:1013D00092061FD56FF020022046BDE810401A612A
:1013E00000F070B800F035FC2046FFF770FF83E78F
:1013F00000F02FFC2046FFF76AFF92E700F029FC7F
:101400002046FFF764FFA0E700F023FC2046FFF72B
:101410005EFFAFE710BD0000134A036890420AD098
:10142000B0F1804F07D0A2F59432904203D002F57C
:101430008062904207D14A6823F070031343CA6860
:1014400023F4407313434A6923F08003134303607A
:101450008B68C3620B688362034B984204BF0B69BD
:101460000363012343617047002C014010B504461B
:1014700030B390F83D3003F0FF021BB980F83C20F8
:1014800001F09EF80223206884F83D30211DFFF70B
:10149000C3FF0123002084F8463084F83E3084F8EE
:1014A0003F3084F8403084F8413084F8423084F88A
:1014B000433084F8443084F8453084F83D3010BD22
:1014C0000120FCE7704770470368DA6822F49072E5
:1014D000DA605A6922F001025A61026B012A02BFE6
:1014E000DA6822F01002DA60202380F83E30002310
:1014F0000363704710B504460368C1681A6922F493
:1015000040520A431A6182680069D96802436069DF
:1015100021F4B05121F00C0102430A43DA605A6908
:10152000A16922F440720A435A610E4A934215D1CE
:10153000FFF764FE19234343626820689200B3FBFF
:10154000F2F36422B3FBF2F102FB11331B013233DD
:10155000B3FBF2F303EB0113836010BDFFF73EFE14
:10156000E8E700BF00380140704710B5044640B3BB
:1015700090F83D3003F0FF021BB980F83C20FFF7E4
:10158000F3FF2423226884F83D30D368204623F4F7
:101590000053D360FFF7AEFF236800201A6922F4DE
:1015A00090421A615A6922F02A025A61DA6842F4BA
:1015B0000052DA602023206484F83D3084F83E3005
:1015C00010BD0120FCE710B5044660B390F83D3033
:1015D00003F0FF021BB980F83C20FFF7C5FF24236E
:1015E000226884F83D30D368204623F40053D3604A
:1015F000FFF780FF236800201A6922F490421A61E5
:101600005A6922F022025A615A6942F008025A616C
:10161000DA6842F40052DA602023206484F83D3016
:1016200084F83E3010BD0120FCE790F83D30202BBF
:1016300018D1A9B1A2B190F83C30012B12D0C284CC
:1016400000238284212201620168036480F83C3017
:1016500080F83D20CA68184642F08002CA60704790
:10166000012070470220704708B50023406AC385F7
:10167000C38401F057F908BD704790F83E3007B5B4
:10168000222B37D181680268B1F5805F836A34D13B
:101690000169002934D15268C2F3080223F8022BF1
:1016A000C28D8362013A92B2C2851ABB0368D968BF
:1016B00021F02001D960D96821F48071D96059697D
:1016C00021F001015961202180F83E10016B0129B0
:1016D00020D10263D96821F01001D9601968C906C8
:1016E00005D501921A6801925B680193019B818D77
:1016F000FFF7C2FF03B05DF804FB39B9016929B9EE
:101700005268D2B21A70836A0133C9E7526802F094
:101710007F02F7E701F000F9ECE70000036837B556
:101720001A68044612F00F0FD9685D6909D1950651
:1017300040F182808D067FD503B0BDE83040FFF7D1
:101740009CBF15F0010543D012F0010F02F0040315
:101750005BD11BB1236C43F002032364900741D596
:10176000236C12F0080F43F00403236403D0236CAE
:1017700043F008032364236C002B57D0920604D552
:101780008B0602D52046FFF778FF216820464B697B
:10179000226C03F0400302F0080253EA020547D02E
:1017A000FFF792FE4B695D063DD54B69A06B23F0B8
:1017B00040034B61002836D0694B4363FFF726F99D
:1017C000002833D0A06B436B03B0BDE8304018470E
:1017D00011F4907F30D012F0010F02F0040307D112
:1017E00093070DD41007C6D501F020032B43BDE7A6
:1017F000C8050FD4002BF3D19307F3D5002DAFD13B
:101800001507B8D511F0200FB0E7C80502D4002B9A
:10181000A0D1F1E7236C500743F001032364EBD51B
:10182000002DDDD096E7204601F07CF803B030BDF6
:1018300001F078F82564F9E7206B012855D1D0062E
:1018400053D5CD0651D5002101911A6801925A68ED
:101850000192019A5A6912F040022AD0A06B0268E4
:10186000526892B2002AE1D0A58D9542DED9E28578
:101870008269202A15D0DA6822F48072DA605A6907
:1018800022F001025A615A6922F040025A61202274
:1018900084F83E202163DA6822F01002DA60FFF754
:1018A00095F8E38DA18DC91A89B22046FFF7E4FEB1
:1018B000BCE7E08DE58DA18DADB280B2002DB5D035
:1018C000091A89B20029B1D0D86820F49070D86084
:1018D000586920F001005861202084F83E002263FE
:1018E000DA6822F01002DA60DFE7100626D50D066E
:1018F00024D594F83D20212A98D1A168226AB1F517
:10190000805F16D12169A1B932F8021BC1F3080129
:1019100059602262E28C013A92B2E284002A85D1B7
:10192000DA6822F08002DA60DA6842F04002DA60B7
:101930007CE7511C216212785A60EBE750067FF574
:1019400075AF4A067FF572AFDA68204622F0400292
:10195000DA60202384F83D3000F0E1FF66E700BF45
:101960006916000890F83C30012B11D0242302683E
:1019700080F83D30D36823F00C0343F00803D360B4
:10198000202380F83D30002380F83C301846704713
:101990000220704790F83C30012B11D024230268BC
:1019A00080F83D30D36823F00C0343F00403D36088
:1019B000202380F83D30002380F83C3018467047E3
:1019C0000220704790F83D2090F83E001043704789
:1019D000C28582858162034622220020186483F832
:1019E0003C0083F83E201B68DA6842F48072DA60BB
:1019F0005A6942F001025A61DA6842F02002DA6064
:101A0000704770B490F83E60202E0DD149B142B1BC
:101A100090F83C40012C07D00024046370BCFFF711
:101A2000D7BF012070BC70470220FBE7836810B568
:101A300004462BB10322014698470023C4E9023330
:101A400010BD836810B5044613B1032201469847C0
:101A5000204610BD0C4A034690420ED0B0F1804F94
:101A60000DD0A2F5943290420BD04FF6FF7002F5E4
:101A70008062934208BF0320704700207047012016
:101A800070470220704700BF002C0140014670B52E
:101A9000044651F8100FFFF7DDFF0546084600F039
:101AA00021FD0023084A04F1600642F82530E36076
:101AB00004F1B005B54204D0103D2846FFF7C1FF40
:101AC000F8E7204670BD00BFC8000020F8B5044606
:101AD0000846FFF7BFFF4FF6FF73984200D1FEE7BD
:101AE000236903B1FEE71C4D04F10C0245F82020E8
:101AF0000E2204F110063046C4E90C33C4E90E335B
:101B0000C4E91033C4E91623216184F82C30A3649E
:101B100084F84C3084F84D30E46000F09FFC04F110
:101B2000600504F1B00728461035FFF77FFFBD427E
:101B3000F9D100234FF6FF72C4E90033C4E906323D
:101B4000C4E90833A360636180233046A362BDE823
:101B5000F840FFF78BBC00BFC8000020034B18689B
:101B600010B10430FFF7B5BB704700BFC8000020BC
:101B7000FFF7F4BF034B586810B10430FFF7A9BB5F
:101B8000704700BFC8000020034B986810B10430B4
:101B9000FFF79FBB704700BFC8000020034BD86809
:101BA00010B10430FFF795BB704700BFC80000209C
:101BB0000022C0E90022C0E902227047F8B50446BD
:101BC0000E4600F1600500F1B00728461035FFF71A
:101BD000EFFFBD42F9D10023204631462361FFF7D4
:101BE00075FF2046F8BD826810B50AB904F017FCED
:101BF000C368BDE81040184708B500B9FEE700F01B
:101C00002BFC0068836E13B16030FFF7ECFF08BD5A
:101C1000FFF7F2BF10B500B9FEE7037F013B072BCA
:101C200010D8DFE803F004140F100F0F0F12012477
:101C300000F012FC0068063400EB041083680BB15E
:101C4000FFF7D1FF10BD0324F2E70424F0E70224DC
:101C5000EEE7FFF7DFBFFFF7DDBF06F0CDBE06F012
:101C6000D3BE000086B0042841D8DFE800F003109E
:101C70001C2834001F4B20489A6942F004029A61E4
:101C80009B6903F004030193019B06B07047194B55
:101C90001A489A6942F008029A619B6903F00803A6
:101CA0000293029BF1E7134B15489A6942F0100228
:101CB0009A619B6903F010030393039BE5E70D4BC7
:101CC00010489A6942F020029A619B6903F0200350
:101CD0000493049BD9E7074B0B489A6942F04002F2
:101CE0009A619B6903F040030593059BCDE70020B3
:101CF000CBE700BF0010024000080140000C01408B
:101D0000001001400014014000180140F8B51449CA
:101D1000074600F059FBFFF79DFE124E044656F8A9
:101D2000203073B9B020FFF798FF0D4905463846BB
:101D300000F04AFB01462846FFF740FF56F82430E2
:101D40001D6056F824301C6844B12046FFF79EFE03
:101D50002046BDE8F840B021FFF781BFF8BD00BFC5
:101D600024900008C8000020FEF790BD08B5FEF7DB
:101D700081FDFEF716FE02F07FF808BD70470000F7
:101D80000F4B84B0DA6942F08052DA61DA6902F00E
:101D900080520192019A9A6942F001029A619A690D
:101DA00002F001020292029A5A6942F040025A611C
:101DB0005B6903F040030393039B04B0704700BFCB
:101DC000001002400C4BD3F8FC20D2015EBFD3F8C8
:101DD000FC2042F08072C3F8FC200022074B5A60BE
:101DE0001A6842F001021A6000BF00BF00BF5868C5
:101DF000B0FA80F04009704700ED00E0001000E00C
:101E000008B5FFF7BDFFFFF7DDFFFEF721FDFFF788
:101E1000B5FFFEF799FCBDE808400148FEF7C6BDD6
:101E20001C0000200023C0E90033C0E902337047E2
:101E30000023012803F101020AD11422DBB253432B
:101E4000054A181D1044816829B11A4413691847BE
:101E500013464008EDE77047D80000200120FEF748
:101E60003FBF0220FEF73CBF0420FEF739BF082029
:101E7000FEF736BF1020FEF733BF38B50524202506
:101E8000A8B2FEF72DFF013C4FEA4505F8D138BD59
:101E900038B506244FF48065A8B2FEF721FF013C57
:101EA0004FEA4505F8D138BD344A08B51046062337
:101EB00000F8043BFFF7B6FF072302F11800137583
:101EC000FFF7B0FF082302F12C0082F82830FFF75B
:101ED000A9FF092302F1400082F83C30FFF7A2FF7E
:101EE0000A23172102F1540082F85030FFF79AFFBD
:101EF00002F1680082F86410FFF794FF02F17C00A1
:101F000082F87810FFF78EFF02F1900082F88C10B3
:101F1000FFF788FF02F1A40082F8A010FFF782FF0C
:101F200082F8B410282102F1B800FFF77BFF02F11C
:101F3000CC0082F8C810FFF775FF02F1E00082F8CC
:101F4000DC10FFF76FFF02F1F40082F8F010FFF7EA
:101F500069FF02F5847082F80411FFF763FF02F550
:101F60008E7082F81811FFF75DFFBDE8084002F59A
:101F7000987082F82C11FFF755BF00BFD8000020E1
:101F800038B5054CA4F5A075143C201DFFF759FD8C
:101F9000AC42F9D138BD00BF180200207B4B82B0A3
:101FA0009A69013842F001029A619B6903F00103CA
:101FB0000193019B23282CD8DFE810F024002D008A
:101FC00034003B00400047004C00530058005F00C5
:101FD00068006D0074007D008200890092009B0003
:101FE000A000A700B000B500BC002B002B002B0008
:101FF000C100C8002B002B002B002B00CD00D2000D
:10200000D900E000624A536843F0E06343F0010303
:10201000536002B070475E4A536823F0010343F0F7
:10202000E063F5E75A4A536843F0E06343F0020384
:10203000EEE7574A536823F00203F0E7544A536827
:1020400043F0E06343F00403E2E7514A536823F0AE
:102050000403E4E74E4A536843F0E06343F00803A7
:10206000D6E74B4A536823F00803D8E7484A536839
:1020700043F0E06343F03003CAE7454A536823F076
:10208000300343F0E06343F01003C1E7404A536874
:1020900023F03003C3E73E4A536843F0E06343F064
:1020A000C003B5E73A4A536823F0C00343F0E06346
:1020B00043F04003ACE7364A536823F0C003AEE771
:1020C000334A536843F0E06343F44073A0E7304A77
:1020D000536823F4407343F0E06343F4007397E7DD
:1020E0002B4A536823F4407343F0E06343F4807356
:1020F0008EE7274A536823F4407390E7244A5368D5
:1021000043F0E06343F4406382E7214A536823F4D9
:10211000406343F0E06343F4006379E71C4A53688B
:1021200023F440637BE71A4A536843F0E06343F4C7
:1021300080536DE7164A536823F480536FE7144ABF
:10214000536843F0E06343F4004361E7104A536887
:1021500023F4004363E70E4A536823F0E06357E734
:102160000B4A536823F0E06343F0807350E7084A5A
:10217000536823F0E06343F0007349E7044A53686F
:1021800023F0E06343F0806342E700BF00100240A9
:102190000000014091FAA1F3B3FA83F370B50D0E7C
:1021A0000F2691FAA1F1B1FA81F144599B0006FA88
:1021B00003F3890024EA03048A402243425170BD9C
:1021C00091FAA1F3B3FA83F370B50D0E042691FAD8
:1021D000A1F1B1FA81F144599B0006FA03F3890099
:1021E00024EA03048A402243425170BD431C04D0B8
:1021F0000C3151F80C3C5A1C01D10020704783422D
:1022000001F10C01F5D1012070470000431C2DE9BC
:10221000F34107460E4600D1FEE75C4B00F00F028B
:10222000C0F3031001F0070853F82250FFF71AFD1E
:10223000B8F1010F044615D195FAA5F3B3FA83F36B
:102240000321280E22589B0001FA03F322EA03021D
:1022500095FAA5F3B3FA83F39B00994011432150FB
:10226000012247E0C6F30620B8F1030F0AD801A304
:1022700053F828F08722000861220008EB220008AA
:102280000D230008FEE7FFF789FE082229462046B5
:10229000FFF780FF95FAA5F22B0EB2FA82F2E15811
:1022A0000F2392009340C6F301160B4095FAA5F256
:1022B00072BB012E45D0022E57D0354B9A6942F0A1
:1022C00001029A619B6903F001030193019BA7F14D
:1022D0000D03012B4DD82F4A536823F0E06343F0E0
:1022E0008063536002B0BDE8F0817F2801D0FFF722
:1022F00055FE092229462046FFF74CFF16F008023A
:1023000018BF04222946FFF75BFFC3E70022BDE7A1
:10231000B2FA82F2012E4FEA820223FA02F309D0C6
:10232000022E1BD0082BC8D1042229462046FFF7D5
:1023300031FFC2E7042B04D1082229462046FFF7CB
:1023400029FF01232A0A92FAA2F2B2FA82F2E16884
:10235000934021EA15210B43E360AEE7042B04D13F
:10236000082229462046FFF715FFE36823EA1523D4
:10237000F2E70F2F02D0133F012FB3D8054A53685D
:1023800023F0E06343F00073ABE700BFF89200086E
:102390000010024000000140431C06D170478342F8
:1023A00002D18968FFF732BF0C310B685A1CF6D195
:1023B000FEE70B685A1C01D100207047834201D10F
:1023C000486870470C31F4E7431C01D0FFF7F1BFB8
:1023D000002070474B6813B94FF0FF3070478342BD
:1023E00001D1086870470C31F4E708B1FFF7F2BF7C
:1023F0004FF0FF30704703468B42084604D01BB1B4
:1024000000290CBF18460020704700000F4B1A68C7
:1024100042F001021A6059680D4A0A405A601A686F
:1024200022F0847222F480321A601A6822F4802228
:102430001A605A6822F4FE025A604FF41F029A6032
:102440004FF00062034B9A60704700BF00100240DB
:102450000000FFF800ED00E00438704703681D4AF3
:1024600084B093420BD11C4B9A6942F400629A618A
:102470009B6903F400630093009B04B07047B3F1C1
:10248000804F0BD103F50433DA6942F00102DA61BF
:10249000DB6903F001030193019BEEE70F4A9342CE
:1024A0000AD10D4BDA6942F00202DA61DB6903F00E
:1024B00002030293029BE0E7094A9342DDD1064BF7
:1024C000DA6942F00402DA61DB6903F00403039382
:1024D000039BD2E7002C01400010024000040040A2
:1024E000000800400368124A934206D102F5644294
:1024F000936923F4006393617047B3F1804F05D172
:102500000C4AD36923F00103D36170470A4A93420E
:1025100005D102F50332D36923F00203F4E7074A39
:102520009342F2D102F50232D36923F00403EBE7C0
:10253000002C014000100240000400400008004050
:10254000431C10D00C4B984210D007D8B0F1804FEC
:102550000ED0A3F5806398420CD0FEE7074B98425B
:10256000FBD1192070476FF00D0070471E20704797
:102570001C2070471D20704700080040002C0140BF
:10258000431C10D00C4B984210D007D8B0F1804FAC
:102590000ED0A3F5806398420CD0FEE7074B98421B
:1025A000FBD11B2070476FF00D0070471E20704755
:1025B0001C2070471D20704700080040002C01407F
:1025C00038B50446FFF74AFF0068FFF7B9FFD4E9C2
:1025D0001212FEF773F92068FFF7B2FFFEF79EF9BB
:1025E00022681046FFF7CCFF05461046FFF7A8FF0C
:1025F00085420BD0D4E912122846FEF75FF9206815
:10260000FFF7BEFFBDE83840FEF788B938BD0000CF
:102610002DE9F04F87B09846109B04468A46006D1E
:10262000624991460193FFF7CFFE61498346606D91
:10263000FFF7CAFE5F490646A06DFFF7C5FE5E497B
:102640000546E06DFFF7C0FE0746BBF1000F00F046
:10265000A980626D013202D0002E00F0A380A26D2D
:10266000013202D0002D00F09D80E26D013202D0D7
:10267000002F00F0978031465846FFF7BCFE2946F0
:102680002060FFF7B8FE39462060FFF7B4FE2060F7
:10269000002800F08780494B98424CD103F55843FD
:1026A000DA6842F48042DA60DA6822F48042DA6062
:1026B0009A6942F480429A619B6903F480430393D0
:1026C000039B2523A4F860303849206DFFF764FE92
:1026D0001EB13749606DFFF75FFE2DB13549A06D22
:1026E000FFF75AFE4FF480752FB13349E06D45F482
:1026F0000075FFF751FE94F86120314B271D43F818
:10270000227023680022C4E9013A019B94F9600019
:10271000C4E904380C230121C4E90635C4F80C903F
:102720002262FEF7CBF83846002E36D107B0BDE85E
:10273000F04FFEF748BF234B984215D103F5E6331F
:102740001A6942F400321A611A6922F400321A61DD
:10275000DA6942F40032DA61DB6903F4003304938E
:10276000049B4FF49373ADE7174B9842ACD103F53C
:10277000E4331A6942F480221A611A6922F4802231
:102780001A61DA6942F48022DA61DB6903F480239A
:102790000593059B40F2272394E707B0BDE8F04F6F
:1027A000FEF7E3BE07B0BDE8F08F00BFE88F00087A
:1027B000AC8F0008708F0008348F0008003801408B
:1027C00018020020004400400048004010B4019C62
:1027D00018B1019410BCFFF71BBF10BC704700007C
:1027E00008B5074B90F8612053F82200FFF7EAF88C
:1027F00000F02200A0F122035842584108BD00BF5A
:102800001802002008B5074B90F8612053F8220009
:10281000FFF7D8F800F02100A0F1210358425841F9
:1028200008BD00BF1802002070B50E46054610B95D
:102830004FF0FF3070BDFFF7D3FF04460028F7D1FB
:10284000294611F8623F0122337095F86100034B6D
:1028500053F82000FFF7D5F82046EBE718020020D8
:1028600038B50D460446B8B1FFF7BAFFA0B994F9E0
:102870006000A564FEF760F894F86100074B04F16E
:10288000620153F820000122FFF7BBF894F96000C1
:10289000BDE83840FEF742B838BD00BF180200203E
:1028A00038B515460446B8B1C16490F96000FEF72A
:1028B00043F8B4F87230A16E9BB294F861001944E9
:1028C000064BAAB253F82000FEF7AFFE94F9600061
:1028D000BDE83840FEF722B838BD00BF180200201E
:1028E00048B1436D013306D190F86120024B53F893
:1028F0002200FFF737B870471802002048B1436D37
:10290000013306D190F86120024B53F82200FFF703
:1029100041B8704718020020436C04381847836C94
:102920000438184730B5044650F8043985B01D689E
:1029300015F0010512D0002200921A6800925B681F
:102940000093009BFFF74CFF40BB0122204604F19F
:102950005E0105B0BDE83040FFF753B8196811F0CB
:10296000020106D001951A6801925B680193019BF0
:10297000E8E71A6812F0040206D002911A6802927F
:102980005B680293029BDDE719680907DAD50392B9
:102990001A6803925B680393039BD3E705B030BDCD
:1029A00008B52520FDF7EEFF024B1868BDE808408A
:1029B000FEF7B4BE18020020262008B5FDF7E2FF9E
:1029C000034B586818B1BDE80840FEF7A7BE08BD24
:1029D00018020020272008B5FDF7D4FF034B9868A4
:1029E00018B1BDE80840FEF799BE08BD18020020E6
:1029F000FEE700001622024B4FF0FF301A607047CE
:102A0000380D0020012070474FF0FF3200F108031D
:102A1000C0E9022343600361002303607047002381
:102A20000361704743689A684B608A60516099609F
:102A30000368086101330360704730B50C68631C9C
:102A40000AD103695A684A6091608B6059600368D3
:102A500008610133036030BD00F10802134652687B
:102A60001568A542FAD9EDE70369D0E901128A6039
:102A700051605968814208BF5A60002202611A6899
:102A8000013A1A601868704710B5044601F0AAFAB6
:102A9000A46B01F0C7FAB4FA84F0400910BD70B518
:102AA0001646026C0446856B42B906689EB980687A
:102AB00000F07CFFA6600135A56370BD6EB940686B
:102AC00006F050F96368226C1344A2686360934275
:102AD00024BF236863600020EDE7C06806F042F978
:102AE000226CE36851429B1A2268E36093423EBF26
:102AF000A3685B18E360022EEDD10DB1013DEAE75A
:102B00002846D8E703461A6C084610B462B1DC6860
:102B1000996814448C4228BF1968DC6028BFD960CA
:102B2000D96810BC06F01EB910BC704770B50446D9
:102B300001F058FA94F8455004F124066DB2002DC6
:102B400014DCFF2384F8453001F06CFA01F04AFAF6
:102B500094F8445004F110066DB2002D12DCFF23EE
:102B600084F84430BDE8704001F05CBA636A002B21
:102B7000E7D0304600F07AFE08B100F001FF013DD9
:102B80006DB2DCE72369002BE9D0304600F06EFE21
:102B900008B100F0F5FE013D6DB2DEE738B50D4637
:102BA000044640B94FF0500383F31188BFF36F8F91
:102BB000BFF34F8FFEE701F015FAD4E90F314B4315
:102BC0002268D0185B1AA060626000201A44FF23BC
:102BD000A063E26084F8443084F84530A5B92369E5
:102BE00073B104F1100000F041FE48B14FF0E02352
:102BF0004FF08052C3F8042DBFF34F8FBFF36F8F98
:102C000001F010FA012038BD04F11000FFF7FCFEBE
:102C100004F12400FFF7F8FEF2E7F8B50D46174679
:102C2000064640B94FF0500383F31188BFF36F8F0E
:102C3000BFF34F8FFEE74843503001F075F904466B
:102C400058B165B100F1500301212046C4E90F6578
:102C50002360FFF7A3FF84F84C702046F8BD0346BD
:102C6000F2E7F0B585B00E461D460446019240B924
:102C70004FF0500383F31188BFF36F8FBFF34F8F73
:102C8000FEE751B9036C43B14FF0500383F3118851
:102C9000BFF36F8FBFF34F8FFEE7022D0BD1E36BB6
:102CA000012B08D04FF0500383F31188BFF36F8FCF
:102CB000BFF34F8FFEE700F069FE08B9019B03BB2D
:102CC00001F090F9A26BE36B9A4223D22A46314677
:102CD0002046FFF7E4FE636A1BB104F1240000F014
:102CE000C5FD48B14FF0E0234FF08052C3F8042DEA
:102CF000BFF34F8FBFF36F8F01F094F9012005B040
:102D0000F0BD4FF0500383F31188BFF36F8FBFF313
:102D10004F8FFEE7022DD9D000231F4637E013B9AD
:102D200002A800F0E5FD01F07DF900F0D9FB01F00B
:102D300059F994F84430FF2B08BF84F8447094F894
:102D40004530FF2B08BF84F8457001F06BF901A9ED
:102D500002A800F0D9FD002839D101F043F9A26B97
:102D6000E36B9A421AD101F05DF9019904F1100068
:102D700000F042FD2046FFF7D9FE00F061FCD8B11B
:102D800001F030F9A36BE26B9A429FD80123019ABC
:102D9000002AC4D101F046F90020B0E701F042F961
:102DA0002046FFF7C3FE00F04BFC01F01BF9A26BBD
:102DB000E36B9A42EAD289E74FF0E0234FF080526A
:102DC000C3F8042DBFF34F8FBFF36F8FEDE720469D
:102DD000FFF7ACFE00F034FCDEE72DE9F84389464E
:102DE00017461E46044640B94FF0500383F311883E
:102DF000BFF36F8FBFF34F8FFEE751B9036C43B141
:102E00004FF0500383F31188BFF36F8FBFF34F8FE1
:102E1000FEE7022E0BD1E36B012B08D04FF05003DD
:102E200083F31188BFF36F8FBFF34F8FFEE701F07D
:102E3000B1F9EFF311884FF0500383F31188BFF31A
:102E40006F8FBFF34F8FA26BE36B9A4201D3022EB9
:102E50001ED194F845503246494620466DB2A36BC8
:102E6000FFF71DFE6B1C0ED1636A3BB104F1240019
:102E700000F0FCFC10B10FB101233B60012088F38E
:102E80001188BDE8F88301356DB284F84550F5E747
:102E90000020F4E7F0B585B00E460446019240B933
:102EA0004FF0500383F31188BFF36F8FBFF34F8F41
:102EB000FEE751B9036C43B14FF0500383F311881F
:102EC000BFF36F8FBFF34F8FFEE700F05FFD50B988
:102ED000019B43B14FF0500383F31188BFF36F8F11
:102EE000BFF34F8FFEE701F07DF8A56BDDB13146F2
:102EF0002046013DFFF706FEA563236973B104F187
:102F0000100000F0B3FC48B14FF0E0234FF08052C6
:102F1000C3F8042DBFF34F8FBFF36F8F01F082F81A
:102F2000012005B0F0BD019B1BB901F07BF800202A
:102F3000F7E702A800F0DCFC2F4601F073F800F080
:102F4000CFFA01F04FF894F84430FF2B08BF84F813
:102F5000447094F84530FF2B08BF84F8457001F0A9
:102F600061F801A902A800F0CFFC38BB2046FFF7AA
:102F70008BFDE8B1019904F1240000F03DFC2046EE
:102F8000FFF7D4FD00F05CFB48B94FF0E0234FF0B1
:102F90008052C3F8042DBFF34F8FBFF36F8F01F042
:102FA00021F8A56B002DA2D1019B002BC5D1BCE758
:102FB0002046FFF7BBFD00F043FBF0E72046FFF79C
:102FC000B5FD00F03DFB2046FFF75EFD0028E6D092
:102FD000ADE70000002330B5064A52F8335002EB4B
:102FE000C3041DB942F83310606030BD0133082BB3
:102FF000F3D1FAE72402002070B504460D461646C8
:1030000000F0F0FF94F84430FF2B04BF002384F855
:10301000443094F84530FF2B04BF002384F845303A
:1030200001F000F8A36B2BB93246294604F12400C5
:1030300000F0FCFB2046BDE87040FFF777BD0000C4
:10304000F8B51A4B1A4D06461C6828680F4604301E
:10305000FFF70AFD40B92A681649D06A01220B68B9
:10306000824023EA02030B60731C07D137B1296841
:1030700011480431BDE8F840FFF7D4BC2B68A4190F
:103080005C6007D30D4B18682968BDE8F84004312F
:10309000FFF7D3BC0A4B186829680431FFF7CDFC51
:1030A000084B1A68A24288BF1C60F8BD8802002045
:1030B0008C0300208402002090020020D002002017
:1030C000D40200206C02002080B5184D184F194E14
:1030D0002B6883B9184B1B68012B09D94FF0E023EB
:1030E0004FF08052C3F8042DBFF34F8FBFF36F8FA3
:1030F00000F0AAFEEBE700F075FFFB68DC68201D1E
:10310000FFF7B2FC3368013B33602B68013B2B6057
:1031100000F088FF04F1580005F08EFD206B00F0F0
:1031200005FF204600F002FFD2E700BFA402002006
:10313000A80200208C02002000030020064A136829
:103140001968064B19B94FF0FF321A6070471268C0
:10315000D268D2685268F8E7D40200206C020020DE
:103160002DE9F84F9600074630460D469846DDF8A3
:103170002C9000F0D9FE824618B94FF0FF30BDE820
:10318000F88F4FF4C07000F0CFFE0446002800F026
:10319000C5803246C0F830A0A521504605F014FD88
:1031A000236B043E1E4426F00706002D00F0A88085
:1031B0006B1E04F133020F3513F8011F02F8011FD3
:1031C00009B1AB42F8D1002384F843300A9D4FF097
:1031D000000B062D28BF062504F1040A5046E562BF
:1031E000E564C4F850B0FFF71AFCC5F1070504F117
:1031F0001800FFF714FC4FF490725946C4F878B1E8
:103200002461A561646284F87CB104F1580005F082
:10321000DBFC444B394603F16802E365D033226698
:10322000636601220023C4E93C233F4A3F4B3046FA
:10323000C4E93E233E4B4246C4F800310B23A4F8B8
:10324000043100F0A5FE2060B9F1000F01D0C9F8EB
:10325000004000F0C7FE374B374F1A68374E013237
:103260001A603D68002D4ED13C601B68012B1FD1B8
:10327000B04640460135FFF7C7FB072D08F114089B
:10328000F7D1DFF8BC802F4D4046FFF7BDFB284645
:10329000FFF7BAFB2C48FFF7B7FB2C48FFF7B4FB4E
:1032A0002B48FFF7B1FB2B4BC3F800802A4B1D6066
:1032B0002A4A2B49136808680133136063640123A9
:1032C000E26A9340034314200B6000FB0260514606
:1032D000FFF7A8FB00F0A6FE224B1B6873B13B680A
:1032E000DA6AE36A9A4209D24FF0E0234FF0805243
:1032F000C3F8042DBFF34F8FBFF36F8F01203EE75C
:1033000084F8345062E7174B1A68E36A002ACFD179
:103310003A68D26A9A4298BF3C60C9E7504600F0CA
:1033200005FE2AE7000C00200E33CDAB34126DE60B
:10333000ECDE05008C0200208C030020000300203E
:10334000EC020020D8020020BC020020A8020020CD
:1033500090020020D4020020D00200207002002041
:10336000840200208002002070B504462D4D00F03C
:1033700039FE04B92C68261D3046FFF775FB60B98D
:103380001423E06A284A4343D35833B9012227491A
:1033900082400B6823EA02030B60A36A1BB104F1AD
:1033A0001800FFF761FB224A1368013313602B6892
:1033B000A3421BD131461F48FFF734FB1E4A136856
:1033C0000133136000F02EFE1C4B1B684BB32B68BF
:1033D000A34226D11A4B1B68CBB14FF0500383F3A5
:1033E0001188BFF36F8FBFF34F8FFEE7154A04F1CB
:1033F00058001368013B136005F01EFC206B00F0C1
:1034000095FD204600F092FDFFF798FEDAE74FF0B9
:10341000E0234FF08052C3F8042DBFF34F8FBFF36A
:103420006F8F70BD8C0300200003002084020020F9
:1034300070020020A8020020A402002080020020C8
:10344000640200208C02002013B500241B4B1C4A90
:1034500001931C4923461C480094C2F3CF02FFF796
:103460007FFE01281DD100F03BFB012819D14FF050
:10347000500383F31188BFF36F8FBFF34F8F134B4C
:10348000134A1B68583313604FF0FF32114B1A6018
:10349000114B1860114B1C6002B0BDE8104000F0E9
:1034A00021BE013008D14FF0500383F31188BFF3E0
:1034B0006F8FBFF34F8FFEE702B010BD6802002090
:1034C0000004000050930008C93000088C0300205D
:1034D000340000206C0200208002002088020020BE
:1034E000024A136801331360704700BF6402002072
:1034F000014B1868704700BF88020020454B2DE93A
:10350000F74F1B68002B7BD1434B1C6801341C60B8
:10351000BCB9424B1A68126842B14FF0500383F3B2
:103520001188BFF36F8FBFF34F8FFEE73C4A1968D6
:103530001068186011603B4A136801331360FFF78D
:10354000FDFD394D4FF0000B2B68384E9C42384F33
:1035500017D214213A68D26A4A43B258022A354A2D
:1035600028BF4FF0010B12680AB900F084FC324A00
:103570001268002A18BF4FF0010B584603B0BDE88F
:10358000F08FDFF898A0DFF8B490DAF80020126826
:103590001AB94FF0FF322A60DBE7DAF80020D26870
:1035A000D2F80C80D8F804108C4201D22960D0E700
:1035B00008F1040318460193FFF756FAD8F82810CB
:1035C00019B108F11800FFF74FFA01224FF0140C5F
:1035D000D8F82C00D9F8003002FA00F119430CFB9E
:1035E0000060C9F8001008F10401FFF71BFA386801
:1035F000D8F82C10C26A914228BF4FF0010BC4E7E3
:103600000C4A4FF0000B13680133136000F033FCD9
:10361000B3E700BF6402002088020020D40200202B
:10362000D0020020740200206C0200200003002061
:103630008C0300207C0200207802002084020020FD
:103640002DE9F843314C236843B94FF0500383F31D
:103650001188BFF36F8FBFF34F8FFEE700F0C2FCFE
:103660002368013B236024682CB1002400F0DAFCBD
:103670002046BDE8F883264B1B68002BF5D0254D6E
:10368000254EDFF898801FE0EB680127DC6804F125
:10369000040904F11800FFF7E7F94846FFF7E4F9D9
:1036A0001420E26A316807FA02F30B4300FB028040
:1036B00049463360FFF7B6F9194BE26A1B68DB6ACB
:1036C0009A4201D3174B1F602B68002BDCD10CB141
:1036D000FFF734FD144D2C6844B10127114EFFF75C
:1036E0000DFF00B13760013CF9D12C600D4B1B6818
:1036F000002BBAD04FF0E0234FF08052C3F8042DD6
:10370000BFF34F8FBFF36F8F0124AFE76402002038
:103710008C020020BC020020840200200003002054
:103720008C030020780200207C02002008B550B9EC
:103730004FF0E0234FF08052C3F8042DBFF34F8FBA
:10374000BFF36F8F08BD0A4B196841B14FF05003AA
:1037500083F31188BFF36F8FBFF34F8FFEE7FFF73F
:10376000BFFEFFF76DFCFFF76BFF0028E0D0E9E735
:10377000640200201A4B10B51A681A4B12B10122CC
:103780001A6010BD1A60184B1A68B2FA82F214233C
:10379000D2B2C2F11F0253431449CC58C81844B9DD
:1037A0004FF0500383F31188BFF36F8FBFF34F8F38
:1037B000FEE74468083364680B449C4208BF6368B2
:1037C000446008BF4360142303FB02114B68DA68AE
:1037D000074B1A601B68074A58331360D1E700BFD4
:1037E00064020020780200208402002000030020F0
:1037F0008C0300203400002010B50C4640B94FF077
:10380000500383F31188BFF36F8FBFF34F8FFEE731
:10381000054B19681831FFF710F92046BDE8104034
:103820000121FFF70DBC00BF8C03002038B50D4609
:10383000144640B94FF0500383F31188BFF36F8FE4
:10384000BFF34F8FFEE7084B19681831FFF7EAF80E
:10385000002C214608BF2846BDE8384018BF4FF06D
:10386000FF30FFF7EDBB00BF8C03002038B5C36805
:10387000DC6844B94FF0500383F31188BFF36F8FB6
:10388000BFF34F8FFEE704F118052846FFF7ECF869
:10389000114B1B68E3B9251D2846FFF7E5F8012306
:1038A0000E49E26A08689340034314200B602946DE
:1038B0000B4B00FB0230FFF7B5F80A4BE26A1B68BE
:1038C000DB6A9A4285BF0120074B0020186038BD93
:1038D00029460648EFE700BF64020020840200206A
:1038E000000300208C03002078020020BC0200208E
:1038F000034B1B680360034B1B684360704700BFAA
:10390000740200208802002070B50C46054640B9BC
:103910004FF0500383F31188BFF36F8FBFF34F8FC6
:10392000FEE741B94FF0500383F31188BFF36F8F67
:10393000BFF34F8FFEE700F055FB0F4B196823686C
:103940005A1C10D00D482E6800686A68864201D063
:103950008A420FD9881A83420AD95B1A134428462F
:103960002360FFF7C5FF002400F05CFB204670BD1C
:10397000002323600124F7E788020020740200205E
:103980000122014B1A60704778020020054B1B682A
:1039900033B1054B1868B0FA80F040094000704719
:1039A000012070478002002064020020F8B5044620
:1039B00008B90020F8BD224B1B68834208D04FF0A5
:1039C000500383F31188BFF36F8FBFF34F8FFEE770
:1039D0001B6D43B94FF0500383F31188BFF36F8F12
:1039E000BFF34F8FFEE7C16AC26C013B9142036592
:1039F000DFD0002BDDD1061D3046FFF735F8114F23
:103A0000114A50B91423E16A4B43FB582BB90125E5
:103A100013688D4023EA05031360E36C1420C3F19F
:103A20000701A161E3620124116804FA03F500FBB8
:103A300003700D4331461560FEF7F4FF2046B9E7E9
:103A40008C0300200003002084020020914208B56E
:103A5000416000610AD8D21A83699A420DD2084B9C
:103A6000011D1868FEF7E9FF002008BD9A4201D247
:103A7000994202D2034B011DF3E70120F5E700BF95
:103A80009C030020A0030020F8B50F4C00F0AAFA18
:103A90002568ADB90D4F0E4E3846FEF7B5FF3046DE
:103AA000FEF7B2FF0B4B2A461F600B4B0C210A207E
:103AB0001E60FFF7B2F8206010B10849FFF78AFADC
:103AC000BDE8F84000F0AEBA98030020B80300202B
:103AD000A4030020A00300209C03002055930008AD
:103AE00007B5FFF7D1FF0F4B1B6843B94FF05003E9
:103AF00083F31188BFF36F8FBFF34F8FFEE70A4B3D
:103B00000A4A01930223D208520000930849002375
:103B1000084892B2FFF724FB0028E7D003B05DF815
:103B200004FB00BF98030020940300200004000061
:103B30005A930008313C00087FB5164604461A46E1
:103B400040B94FF0500383F31188BFF36F8FBFF379
:103B50004F8FFEE70C4D286878B10529CDE9011695
:103B600003940CDCFFF712FF0023022814BF1A464F
:103B7000089A286801A9FFF774F804B070BD002303
:103B800001A9FFF72AF9F8E7980300202DE9F34788
:103B90000646FFF7ADFCDFF88C800546D8F800300C
:103BA000834209D9204F3B681A686AB91F4A1168D5
:103BB00013603960012300E0002328463360C8F811
:103BC000005002B0BDE8F087DB68DC68D3F80090F5
:103BD00004F1040A5046FEF747FF236A204698473F
:103BE00094F828305B07DED5A3694B44994506D28B
:103BF0005146386863602461FEF71FFFD3E7002356
:103C00004A46194620460093FFF796FF0028CAD17E
:103C10004FF0500383F31188BFF36F8FBFF34F8FC3
:103C2000FEE700BF90030020A00300209C030020BB
:103C30002DE9F043694D6A4E87B02B68D3F80080B8
:103C4000B8F1000F35D00024DB68D3F80080FFF70F
:103C500047FC03A8FFF79AFF039B8146002B6AD11C
:103C6000002C4DD1404551D3FFF7EAFC2B68DB68AF
:103C7000DF68381DFEF7F8FE97F8283058071AD588
:103C8000B96943464A4638464144FFF7DFFEB0B1C2
:103C900023464246214638460094FFF74DFF70B94F
:103CA0004FF0500383F31188BFF36F8FBFF34F8F33
:103CB000FEE70124CBE723F0010387F828303846DC
:103CC0003B6A98470022306803A9FFF7E3F8002811
:103CD000B3D0039B002BF5DB059C636913B1201D5A
:103CE000FEF7C2FE02A8FFF751FF039B0246092B15
:103CF000E8D8DFE803F02323234C536B23234C53F2
:103D0000384B1B681C68B4FA84F464092246306896
:103D1000A8EB0901FFF770F9FFF792FC0028D1D159
:103D20004FF0E0234FF08052C3F8042DBFF34F8FC4
:103D3000BFF36F8FC6E7FFF783FCC3E794F8283023
:103D4000A16943F0010384F82830049B20461944FC
:103D5000FFF77CFE0028B5D0236A2046984794F8E8
:103D600028305907AED50023A269049920460A4499
:103D700000931946FFF7E0FE0028A3D14FF050034F
:103D800083F31188BFF36F8FBFF34F8FFEE794F873
:103D9000283023F0010384F8283093E794F8283082
:103DA00043F0010384F828300499A16141B94FF030
:103DB000500383F31188BFF36F8FBFF34F8FFEE77C
:103DC000034601442046FFF741FE7BE794F8283084
:103DD0009A07DED4204600F0A9F873E7A00300207C
:103DE000980300209C03002041F65832054B1B68C5
:103DF000B3FBF2F3002243439A4200D1704700BF65
:103E00000132F9E72400002038B5044672B60121DA
:103E1000252002F015FA00250121252002F06EFA76
:103E20004FF49670FFF7E0FF0021252002F066FABC
:103E300001354FF49670FFF7D7FFAC42ECD14FF449
:103E4000FA60FFF7D1FFE6E700F0BCBF042008B539
:103E5000FFF7DAFF08B5FFF7F9FF052008B5FFF710
:103E6000D3FF08B5FFF7F9FF062008B5FFF7CCFF31
:103E700008B5FFF7F9FF704708B5FFF787FD012880
:103E800003D0BDE8084000F005B908BDF8B50C4600
:103E9000174907460B684BB9164A174B9B1A174A26
:103EA00022F003029B1A164A0B601360FFF76EFDA7
:103EB00001280FBF6D46114B0F4D23F0030318BFB0
:103EC000ED1AFFF70DFB0F4B1E683219AA4207D9F6
:103ED0000C233B60FFF7B4FB4FF0FF363046F8BDD4
:103EE0001A60074A13681B1B1360FFF7A9FBF5E76D
:103EF000CC030020400D00200050002000040000F2
:103F0000D003002028000020EFF305830BB9FFF752
:103F1000E7BA4FF0500383F31188BFF36F8FBFF3FD
:103F20004F8FFEE7FFF78CBB04F066BD04F06CBD5D
:103F300006480068006880F3088862B661B6BFF37F
:103F40004F8FBFF36F8F00DF00BF000008ED00E070
:103F5000002382B001930D4B1B68013308D04FF052
:103F6000500383F31188BFF36F8FBFF34F8FFEE7CA
:103F70004FF0500383F31188BFF36F8FBFF34F8F60
:103F8000019B002BFCD002B0704700BF2C0000202A
:103F90004FF0807340F8043C054B21F0010140F8DC
:103FA000081C40F80C3C40F8202C4038704700BFFB
:103FB000513F000800000000000000000000000069
:103FC000074B19680868B0E8F00F80F30988BFF361
:103FD0006F8F4FF0000080F311884EF00D0E704788
:103FE0008C0300204FF0500383F31188BFF36F8FD1
:103FF000BFF34F8F0A4A13680133012B13600ED1B0
:104000004FF0E023D3F8043DDBB243B14FF050034F
:1040100083F31188BFF36F8FBFF34F8FFEE77047B5
:104020002C000020084A136843B94FF0500383F373
:104030001188BFF36F8FBFF34F8FFEE7013B136013
:104040000BB983F3118870472C000020000000009A
:10405000EFF30980BFF36F8F0D4B1A6820E9F00F63
:1040600010602DE908404FF0500080F31188FFF7F1
:1040700081FB4FF0000080F31188BDE8084019680B
:104080000868B0E8F00F80F30988BFF36F8F7047BE
:104090008C03002008B54FF0500383F31188BFF361
:1040A0006F8FBFF34F8FFFF729FA28B14FF0E0234E
:1040B0004FF08052C3F8042D002383F3118808BD0C
:1040C0004FF0E02200234FF47A7113619361044BA7
:1040D0001B68B3FBF1F3013B536107231361704786
:1040E0002400002013B5274B1A78D2B20192FF2288
:1040F0001A701B78244ADBB28DF803309DF8033028
:1041000003F0500313700723204A13609DF8031037
:10411000136809060AD4032B11D04FF0500383F320
:104120001188BFF36F8FBFF34F8FFEE7013B136022
:104130009DF803305B00DBB28DF80330E6E74FF407
:1041400040731360019B0F4ADBB213704FF0E02302
:104150000024D3F8202D42F46002C3F8202DD3F8B8
:10416000202D42F06042C3F8202DFFF7A9FF084B35
:104170001C60FFF7DDFEFFF7FDFA2046FFF7E8FEC3
:1041800002B010BD00E400E0D8030020D4030020FA
:104190002C000020EFF305830F2B0ED9114A9B5CF6
:1041A000114A12789A4208D94FF0500383F31188CC
:1041B000BFF36F8FBFF34F8FFEE74FF0E0230B4A43
:1041C000D3F80C3D126803F4E063934208D94FF032
:1041D000500383F31188BFF36F8FBFF34F8FFEE758
:1041E000704700BFF0E300E0D8030020D4030020B4
:1041F000BFF34F8F0549064BCA6802F4E0621343D0
:10420000CB60BFF34F8F00BFFDE700BF00ED00E0C4
:104210000400FA05642008B5FFF788FA6B4E6C4C71
:104220006C4D0120FFF782FA02F0D8F8336898420B
:10423000F7D002F0D3F830601C2002F099F8002883
:104240005BD00021644B21701A7861F300021A7070
:104250001D2002F08DF800285CD000215E4B6170BB
:104260001A7861F341021A701E2002F081F80028CA
:104270005DD00021584BA1701A7861F382021A7048
:104280001F2002F075F800285ED00021524BE1702B
:104290001A7861F3C3021A70082002F069F8002846
:1042A0005FD000214C4B21711A7861F304121A700F
:1042B000C82002F05DF8002860D00021464B6171F3
:1042C0001A7861F345121A700B2002F051F8002899
:1042D00061D00021404BA1711A7861F386121A70E7
:1042E0000C2002F045F8002862D000213A4BE17121
:1042F0001A7861F3C7121A7093E723782A8B9342D6
:10430000ABBF354A013313782370A4BF43F00103D8
:1043100013709DE763782A8B9342ABBF2E4A01331B
:1043200013786370A4BF43F0020313709CE7A37873
:104330002A8B9342ABBF284A01331378A370A4BFE2
:1043400043F0040313709BE7E3782A8B9342ABBFDF
:10435000214A01331378E370A4BF43F008031370BC
:104360009AE723792A8B9342ABBF1B4A0133137818
:104370002371A4BF43F01003137099E763792A8B6C
:104380009342ABBF144A013313786371A4BF43F067
:104390002003137098E7A3792A8B9342ABBF0E4A90
:1043A00001331378A371A4BF43F04003137097E760
:1043B000E3792A8B9342ABBF074A01331378E37149
:1043C000A4BF43F0800313702BE700BF500500200B
:1043D00054050020600500205C050020642008B51D
:1043E000FFF7A4F9034C0120FFF7A0F9204601F0E4
:1043F000F7F8F8E708040020642008B5FFF796F9FD
:10440000034C0120FFF792F9204600F065FFF8E722
:10441000DC03002070B54FF4FA70FFF787F9144AF7
:104420001449154801F07AF901F0D8FF0026044636
:10443000114D6420FFF77AF901F0D0FF001BC82866
:1044400005D9284601F08CF901F0C8FF0446002187
:10445000284601F091F940B1284601F09FF900216A
:10446000202001F04BFF0126E3E7002EE1D0F6E724
:1044700000E78F01801A06008C05002037B5002464
:10448000052523466022CDE9005417491748FEF759
:1044900067FE23466022CDE9005415491548FEF712
:1044A0005FFE0223802200931349234601941348A0
:1044B000FEF756FE03234FF4807200931049234603
:1044C00001941048FEF74CFE04234FF480720093D1
:1044D0000D49234601940D48FEF742FE204603B0E5
:1044E000BDE83040FEF740BF629300081544000865
:1044F0006F9300081542000878930008DD43000818
:1045000088930008F943000896930008554900086D
:1045100001F51C41413100F0A5BC00004FF4A1732E
:1045200013B503804FF4E1330446A8224360084BDF
:10453000C02118689B88A060A38104F110000123AA
:10454000009201F04DFC05232046238302B010BDEC
:10455000388E0008F0B587B001F040FF0024054612
:10456000124E204616F8017B01F02CF9874203D049
:104570003946204601F05EF901341C2CF1D10C497A
:1045800003A801F02DFD01F029FF0A22411B684616
:1045900001F085FD694603A801F0AAFD684601F017
:1045A000DDFC03A801F0DAFC07B0F0BD60050020D7
:1045B0009F93000800B589B001A8FFF7AFFF0C4B2F
:1045C000BDF804201A80029A5A60069A5A61BDF812
:1045D0001C201A83074AD2F8E81702F5E062B2F805
:1045E000EC2099609A8109B05DF804EBFFF7B2BF47
:1045F0006005002000F0FF1FF0B587B001F0EEFE6F
:10460000134E054600243746204601F0DBF80134FE
:104610001C2C06F8010BF7D13B78422B01D0FFF799
:10462000C9FF0C4903A801F0DBFC01F0D7FE0A2208
:10463000411B684601F033FD694603A801F058FDAF
:10464000684601F08BFC03A801F088FC07B0F0BDC0
:1046500060050020B093000810B50446052101F064
:10466000EFFD2046BDE81040012101F047BE0000EB
:1046700038B50221222001F0E3FD0221C02001F023
:10468000DFFD0221C12001F0DBFD0221C22001F08B
:10469000D7FD0221C32001F0D3FD00211C2001F031
:1046A000CFFD00211D2001F0CBFD00211E2001F0D7
:1046B000C7FD00211F2001F0C3FD0021082001F0EB
:1046C000BFFD0021C82001F0BBFD00210B2001F03F
:1046D000B7FD00210C2001F0B3FD0F20FFF7BCFF58
:1046E0001320FFF7B9FF1420FFF7B6FF1520FFF7DF
:1046F000B3FF1620FFF7B0FF1720FFF7ADFF202014
:10470000FFF7AAFF2120FFF7A7FFC12001F030FE2D
:104710000446C02001F02CFEB0FA80F3B4FA84F015
:1047200040095B098400222044EA430401F020FE92
:10473000002808BF44F00104154DC3202C7001F07F
:1047400017FE0446C22001F013FEB4FA84F3B0FA57
:1047500080F02A785B09400940EA4300012A0D4BAA
:1047600038BF0122022818700BD003280CD0012872
:104770000CBF4FF416534FF4E13307494A704B60B6
:1047800038BD4FF49643F8E74FF41643F5E700BF02
:104790005E0500205D0500206005002070B5114C0D
:1047A0001148617800F04AFE61680F4800F024FE6D
:1047B000616806220D4801F087FA49F6414449F63E
:1047C0005546094D214600220748013400F036FBCA
:1047D000B442F7D12A69064B1A606A69054B1A6020
:1047E00070BD00BF600500200804002034040020D4
:1047F0004C0500204805002013B5094B09490A4C17
:1048000000934B696A4620460831019300F050FD41
:10481000064B1B682361064B1B68636102B010BD29
:104820006C96000860050020DC0300204C05002089
:104830004805002038B51B4C1B4D204649F6E45274
:104840000021FFF765FE20466A780121FFF760FE30
:10485000164B20461A780221FFF75AFE20462A8B73
:104860000421FFF755FE20462A890521FFF750FE57
:1048700020466A890621FFF74BFE2046AA890721B8
:10488000FFF746FEEA8A204652BA082192B2FFF7A5
:104890003FFEAA8A2046BDE8384052BA092192B2AA
:1048A000FFF736BE08040020600500205D050020EB
:1048B00038B5264D49F64541284600F0DAFA244C31
:1048C00049F646412083284600F0D3FA49F646418E
:1048D0002072284600F0CDFA000A607249F647417E
:1048E000284600F0C6FA49F64741A072284600F073
:1048F000C0FA000AE07249F64841284600F0B9FAC9
:1049000049F648412073284600F0B3FA000A607364
:1049100049F64A41284600F0ACFA000A207549F6EB
:104920004A41284600F0A5FA49F6494160752846F3
:1049300000F09FFA000AA07549F64941284600F0A8
:1049400098FAE075BDE83840FFF704BE080400207F
:10495000600500202DE9F04F4FF4FA7091B0904CB3
:10496000FEF7E4FEFFF766FF8E490DA801F038FB65
:104970000A2221780AA801F06FFB0AA90DA801F00C
:10498000B7FB0AA801F0EAFA0DA801F0E7FA864998
:104990000DA801F025FB0A2261780AA801F05CFB52
:1049A0000AA90DA801F0A4FB0AA801F0D7FA0DA8E6
:1049B00001F0D4FA7D490DA801F012FB0A226168CA
:1049C0000AA801F06CFB0AA90DA801F091FB0AA846
:1049D00001F0C4FA0DA801F0C1FA754904A801F06C
:1049E000FFFA0A22217D01A801F036FB01A904A8E3
:1049F00001F07EFB6F4901F087FB05460A22617DCD
:104A000007A801F029FB284607A901F071FB6949B5
:104A100001F07AFB05460A22A17D0AA801F01CFBE1
:104A200028460AA901F064FB624901F06DFB0546C6
:104A30000A22E17D0DA801F00FFB0DA9284601F027
:104A400057FB0DA801F08AFA0AA801F087FA07A817
:104A500001F084FA01A801F081FA04A801F07EFABD
:104A600055490DA801F0BCFA0A224FF4FB710AA8BF
:104A700001F003FB0AA90DA801F03AFB0AA801F016
:104A80006DFA0DA801F06AFA4C4907A801F0A8FADE
:104A90000A22217A04A801F0DFFA04A907A801F08C
:104AA00027FB474901F030FB05460A22617A0AA834
:104AB00001F0D2FA28460AA901F01AFB404901F098
:104AC00023FB05460A22A17A0DA801F0C5FA284663
:104AD0000DA901F00DFB3A4901F016FB0DA801F0FC
:104AE0003DFA0AA801F03AFA04A801F037FA07A83B
:104AF00001F034FA0A22E17A04A801F0ADFA04A91F
:104B000007A801F08EFA2E4907A801F0FDFA054624
:104B10000A22217B0AA801F09FFA28460AA901F07F
:104B2000E7FA274901F0F0FA054600260A22617BE0
:104B30000DA801F091FA0DA9284601F0D9FA0DA8A7
:104B400001F00CFA0AA801F009FA07A801F006FA28
:104B500004A801F003FAB04634463746194DDFF891
:104B60006890DFF868A00A20FEF7E0FD49F64441AE
:104B7000284600F07EF91FFA80FBBBF1000F27D01A
:104B8000002203212846FFF7C3FCBBF10A0F40F0C7
:104B9000B680484600F0E4FDFFF78AFE18E000BF4B
:104BA00060050020C4930008D8930008DC93000837
:104BB000E69300081F940008EA930008F0930008A9
:104BC000F5930008080400208C0500205C050020F7
:104BD0009AF80030DA075ABF24F00104A4B244F076
:104BE000010498075ABF24F00204A4B244F002045E
:104BF00059075ABF24F00404A4B244F004041A076D
:104C00005ABF24F00804A4B244F00804D8065ABFDE
:104C100024F01004A4B244F0100499065ABF24F002
:104C20002004A4B244F020045A065ABF24F04004E1
:104C3000A4B244F040041B0656BF24F0800444F0A4
:104C40008004A4B222460B212846FFF761FC49F6F6
:104C50004D41284600F00DF9804537D049F64D41C9
:104C6000284600F006F9834610F0010F0CBF012121
:104C700000211FFA80F80F2001F040FB1BF0020F0B
:104C80000CBF01210021132001F038FB1BF0040FA1
:104C90000CBF01210021142001F030FB1BF0080F94
:104CA0000CBF01210021152001F028FB1BF0100F83
:104CB0000CBF01210021162001F020FB1BF0200F6A
:104CC0000CBF01210021172001F018FB01F086FB29
:104CD000C01BB0F57A7F7FF646AF01F07FFB86F010
:104CE000010607463146212001F008FB4FF47A7295
:104CF0000A21B7FBF2F22846FFF70AFC33E7BBF1C3
:104D0000140F02D1FFF796FD62E7BBF11E0F01D130
:104D1000FFF76EFABBF1420F7FF45AAF024800F082
:104D20001FFDFFF747FCF3E78C05002010B5204C72
:104D300088B02046092100F03FFF20460A2100F0FC
:104D400017FF062220464FF4E13100F0BDFF19495C
:104D500005A801F045F90A2249F6E45102A801F03C
:104D60008CF902A905A801F0C3F90146204601F01B
:104D700081F802A801F0F2F805A801F0EFF80E4959
:104D8000204601F081F8FFF737FCFFF771FCFFF7D1
:104D900005FDFFF731FD00238022CDE900330749EF
:104DA0000748FEF7DDF908B0BDE81040FEF74CBB40
:104DB00090090020F7930008079400082194000848
:104DC0007D44000870470000002337B50E4D1A4699
:104DD000194600930D4801F003F82846FFF79EFBA3
:104DE00025230B4C00931A221B21204600F038FE8D
:104DF000C92321466A78074800F0F0FA064803B054
:104E0000BDE8304000F044BA600500207C05002079
:104E10003404002008040020DC0300200022C0E944
:104E20000022C0E90322028142617047006920B17B
:104E300003688B4201D0C068F9E7704770B504463B
:104E400010200E46154603F0D7FD0023C0E90233BB
:104E50002369C0E9006513B92061606170BD6369B1
:104E6000D860FAE708B5FFF7E1FF08B1426001201A
:104E700008BD08B5FFF7DAFF00B1406808BD08B506
:104E8000FFF7D4FF48B1806838B10368934205D872
:104E9000406890422CBF0020012008BD0120FCE7A3
:104EA00070B50D460221044601724068164603F0B3
:104EB00055FE803D6060057063685E700323637219
:104EC00070BD01F51C4110B541310446FFF7D7FF15
:104ED00030B103222046BDE810400621FFF7E0BFB5
:104EE0002046FFF7BFFF08B90222F3E702236372EF
:104EF00010BD2DE9F0471E461746721E7A2A044659
:104F00000D469DF8203004D8B3EB460F4FEA460A11
:104F100002D0032210211CE007F51C4808F14108CB
:104F2000414606EB08022046FFF780FF08B902223F
:104F3000F0E701318A42F6D1AA44EB79AA794146D9
:104F4000204643EA0222FFF79AFF814630B103224E
:104F500006212046BDE8F047FFF7A2BF20460235F4
:104F6000FFF780FFAA4508F10108E6D1606803F069
:104F70004BFD0520207203F03FFD606008B904225C
:104F8000C8E7102303703B0A43700323877080F83F
:104F9000039006716372BDE8F087F8B51D46013BCA
:104FA0007C2B04460E46174604D90322BDE8F84080
:104FB000FFF776BF691C4900C9B20172406803F06F
:104FC000CDFD606018B9042231462046EEE7067038
:104FD000237A6268023B537047F2315249F64143EB
:104FE000032E18BF1346FA1803276D000335114628
:104FF0002046FFF71BFF80B12046FFF73AFF6368AA
:10500000010A3B4403F8011C63680132D85502379A
:10501000AF42ECD103236372F8BD0222D4E72DE93D
:10502000F0411E46013BB3F5FA6F04460F46904629
:1050300004D30322BDE8F041FFF732BFC6F3C70037
:1050400073070CBF02300330C1B22172606803F0F5
:1050500085FD606018B9042239462046EAE70770EA
:10506000237A6268023B012F537042F2117208BF2B
:105070000122002542444FF0010820465119FFF754
:10508000D5FEF0B12046FFF7F4FED4F804E04FEA75
:10509000D50C0CF1020C05F007031EF80C1008FAF1
:1050A00003F3B0F57F4FDBB205F101050CBF1943E7
:1050B0009943AE420EF80C10DFD103236372BDE8B2
:1050C000F0810222C8E7B2F57F4F10B5044606D042
:1050D0002AB103220521BDE81040FFF7E1BE2046BA
:1050E0000131FFF7BFFE18B9022205212046F2E781
:1050F0000223637210BD2DE9F8431D468846DB0884
:10510000690705F1FF3118BF0133B1F5F66F174696
:1051100004469DF8202001D2934206D00322204667
:10512000BDE8F8430F21FFF7BBBE002607F10109D8
:10513000204609EB0601FFF779FED0B108EBD60354
:105140009B7906F00702134113F0010F14BF4FF4CF
:105150007F42002220460136FFF784FEB542E7D1A8
:1051600005216068217203F0F9FC606018B904221F
:10517000D5E70222D3E70F23037063683A0A5A7017
:1051800063682A0A9F706368DA7063681D7103237D
:105190006372BDE8F883042310B504460372006807
:1051A00018B1FBF7A9FA04302072217A606803F085
:1051B000D5FC606030B92046BDE8104004221121C2
:1051C000FFF76EBE11230370237A6268023B5370AF
:1051D000002263689A70FF226368DA70216819B14F
:1051E0006068043003F0B6FD0323637210BD73B52D
:1051F0000D78B1F80140B1F8033064BA5BBA6A1EA9
:10520000A4B29BB2102A3BD8DFE802F02121171E7E
:1052100028093A3A3A3A3A3A3A3A2F1035001A46B9
:10522000214602B0BDE87040FFF74BBE4A790092BC
:105230002246FFF75EFE02B070BD2246032102B097
:10524000BDE87040FFF7A9BE22460421F7E72246D9
:10525000294602B0BDE87040FFF7E1BE1A4621467C
:1052600002B0BDE87040FFF72EBF4A790092224697
:10527000FFF741FFDFE702B0BDE87040FFF78BBFEB
:105280000122294602B0BDE87040FFF709BE0000C8
:1052900010B50446FFF7C2FD0023E361034B20462F
:1052A000A3614FF4FB73238410BD00BFE896000890
:1052B00013B5084B044600935368084669460193AA
:1052C00001F050F904F1180002B0BDE8104001F0FF
:1052D00089BB00BF6C960008F0B587B000AF00F145
:1052E00018010446381D01F0B5FB3B7D072B03D8A0
:1052F000381D01F08DF910B91C37BD46F0BD04F121
:10530000230504F12A06381D01F07CFA30B1381D5E
:1053100001F089FA05F8010FB542F4D194F829009B
:10532000E58C0138C0B22072002DE5D1C828E3D841
:1053300003F062FB6060381D01F064FA40B1381D73
:1053400001F071FA63685855237A0135AB42F2D106
:1053500020466168FFF74BFF637A012B05D1606837
:1053600003F052FB00232372C6E7207A6E46431CEB
:105370001A1284F8293000F10E0303F4FC73ADEB2C
:10538000030D6D46636A84F828200093238D6946D7
:10539000ADF8043094F82A30C21D05F8063F00230A
:1053A000984204DC381D01F01EFAB546D7E7D4F860
:1053B00004C01CF803C0013305F801CFF0E700007A
:1053C000002307B51A4619460093034800F008FD6C
:1053D00003B05DF804FB00BF84050020F8B5044667
:1053E00015460F461E46FFF719FD84F8205020464B
:1053F000C4E90676F8BD000038B50446C0690D461C
:10540000002806DB012100F01BFF0021E06900F00D
:1054100075FFB5F5964F9FBF064A074BB2FBF5F2F5
:10542000B3FBF5F384BF40F2EE2240F2D663C4E949
:10543000092338BD20C5FB00A0764B0280F8201060
:105440007047000070B50446C0690E46002805DBB1
:10545000012100F053FF012000F0C2FF0025217A56
:10546000A069EAB29142036816D8DB6898470D4BF1
:105470000D4A1B680D49B3FBF2F3A26A4868534317
:105480004A68121A9342FBDCE069002802DB002123
:1054900000F034FF012070BD1B68B15C98470135F6
:1054A000DDE700BF2400002040420F00001000E0B4
:1054B000C94370B5094DC9B2685C094EC043745CFC
:1054C000C0B213449A4202D144EA002070BD12F8DF
:1054D000011B4140685C6040745CF3E73395000851
:1054E000339400082DE9F0410E780446FF2E0D4656
:1054F00003D090F82030B3421DD1237A2046EA1819
:1055000012F8028C12F8017C6268033B12F8011B4E
:10551000DBB2FFF7CDFF47EA0827B8420BD12046A0
:10552000691CFFF764FEFF2E02D00120BDE8F08168
:1055300001236372F9E70020F8E700002DE9F0414C
:105540000446C0690F46002805DB012100F0D6FEA5
:10555000012000F045FFA06994F8201003680025A1
:105560001B689847A669237A3268D2F80080EAB2AD
:10557000934229D8626894F820102046FFF798FFDC
:105580000546C0F307213046C047A069E9B2036869
:105590001B689847A0690368DB6898470D4B0E4A63
:1055A0001B680E49B3FBF2F3A26A486853434A688A
:1055B000121A9342FBDCE069002802DB002100F0B4
:1055C0009DFE0120BDE8F0813046B95CC047013541
:1055D000C8E700BF2400002040420F00001000E098
:1055E000002370B50446224D224E0372A069036861
:1055F0001B699847237A98421BDCCBB1184603F00D
:10560000FBF900256060237AEEB2B34222D820462F
:105610006168FFF767FF30B1637A6168032B21D1BE
:105620002046FFF78BFF606803F0EEF9002323723A
:1056300070BDA06903681B6998470F4A33682072E0
:10564000B3FBF2F3626A696853436A68521A934281
:10565000FBDCCBE7A069013503685B6998476368A9
:105660009855D0E7022BDED12046FFF7EBFEDAE7B4
:10567000001000E02400002040420F00214B0846AB
:105680001B782DE9F04723B11F4BA1F164029A4228
:1056900036D8FAF7F3FD1D49FAF7FCFE1C49FAF774
:1056A00045FE002407464FF0040ADFF868905FFAD1
:1056B00084F80AFA08F080B2FAF7E4FD01463846A9
:1056C000FAF7E8FE4946264605460134FAF7EAFFAE
:1056D0000028ECD1F6B2062E12D845F255530E4CE6
:1056E00028462360C4F80480FAF7E6FF0138C0F3C7
:1056F0000B00A060E3689B07FCD14AF6AA23236055
:10570000BDE8F0878D0500209CE68F0100247449D8
:1057100000401C4700F07F45003000400C4B10B4A7
:10572000A1F164049C4211D80A4B5C6A44F0010464
:105730005C625C6AA407FCD54CF6CC44064B1C604A
:105740000124064B1C7010BCFFF798BF10BC7047BB
:105750009CE68F0100100240003000408D050020C3
:10576000034B1B781BB14AF6AA22024B1A60704702
:105770008D05002000300040074B5A6A02F00052AD
:10578000002A14BF0120002004D019B15A6A42F047
:1057900080725A62704700BF00100240024A536A8A
:1057A00043F08073536270470010024008B54FF415
:1057B00080620249024803F0D5FA08BD00FC0108E6
:1057C0009005002010B50446FFF7F0FF014B185D6F
:1057D00010BD00BF90050020002370B586B0CDE954
:1057E000013301230F4C0593CDE90334FBF77AF91C
:1057F000B0B940F215120C4B01A9DA6002A8FBF710
:105800001BFA58B9094D0A4E2146F5E80223032038
:10581000FBF7AEF910B90834B442F5D1FBF774F9CF
:1058200006B070BD00FC0108002002409005002079
:1058300000000208014B1954FFF7CEBF900500206D
:10584000B0F80431B0F80021981A00F03F0070471A
:10585000B0F80431B0F800219BB293421ABFD0F8DF
:10586000F830985C4FF0FF30704790F80231B0F894
:105870000601C0B2834227BFC3F13F03C018C01A5C
:1058800000F1FF30704707B503688DF8071001225B
:105890005B680DF10701984703B05DF804FB13B591
:1058A0000DF107010446FCF7BFFF88B9B4F870306A
:1058B000B4F86C20013303F03F03934208D0B4F8EE
:1058C00070209DF80700616E92B28854A4F8703081
:1058D00002B010BDB0F87210426F10B50A4402F069
:1058E0003F02A0F87220B0F87210B0F86E2089B2B2
:1058F0008A421AD0B0F872404032A4B2B0F87210A6
:10590000121B544289B204F03F0402F03F02C1F17D
:10591000400158BF62428A4228BF0A460449426792
:10592000FCF7BEFF4FF0FF3010BD0020FCE700BFCA
:10593000D558000803682DE9F0479B68044688465F
:105940001646984701232374D4F8E830B4F802913E
:1059500001338246C9F1400904F1940708D194F853
:105960000C312BB10023384684F80C31FCF7B8FF1A
:10597000236820469B6898470028F9D035464D4556
:1059800023D8554521D8B4F80221D4F8FC00531986
:10599000402B10442FD82A46414603F0E3F9A9468C
:1059A000B4F8023138461D4405F03F05A4F8025111
:1059B000FCF728FF30B94A4638461649C4F8089122
:1059C000FCF76EFF3046BDE8F087D14528BFD146D1
:1059D00023684A4641465B6820469847236820462C
:1059E0009B689847A5EB0905C844B4F80291824624
:1059F000C9F14009C3E7C2F140094A46414603F0F4
:105A0000B1F9D4F8FC00A5EB090208EB090103F099
:105A1000A9F9C5E7D5580008037C33B1B0F80221D5
:105A2000B0F806319BB29A42FAD17047C0F8EC3018
:105A3000009B914208BF4FF0FF31C0F8F03000F1F9
:105A40001103C0F8F8300023C0E9392100F15102F8
:105A5000A0F80431C0E93F23A0F8063170470000E8
:105A600073B54FF47A750026C0E901653D4D069C7B
:105A70000560CDB2242D25D83B4E01F4E06156F8E7
:105A800025502943D5B2242D30D8374E02F4E06298
:105A900056F825502A43DDB2242D3BD8324E03F46C
:105AA000E06356F825502B43E5B2242D46D82E4E00
:105AB00004F4E06456F825502C430094FFF7B6FF39
:105AC00002B070BD01F0C006C02E0CD1C92D0AD89D
:105AD000264D01F03F0655F82660234D01F4E061A4
